:020000040800F2
:100000000002002059040008F5030008B1030008AD
:10001000050400081504000825040008000000007D
:100020000000000000000000000000009503000830
:1000300035040008000000007903000845040008AA
:1000400025010008250100082501000825010008F8
:1000500025010008250100082501000825010008E8
:1000600025010008250100082501000825010008D8
:1000700025010008250100082501000825010008C8
:1000800025010008250100082501000825010008B8
:1000900025010008250100082501000825010008A8
:1000A0002501000857160008250100085116000810
:1000B0002501000825010008250100082501000888
:1000C0002501000825010008250100082501000878
:1000D00025010008150B00081B0B0008210B000868
:1000E00025010008492B000825010008250100080A
:1000F0002501000800000000250100082501000876
:100100002501000825010008250100082501000837
:100110002501000825010008250100082501000827
:100120002501000800F08EB900F0A0BA7047000069
:1001300070B50C46064600F089FA094B094A1D685D
:100140002C44944202D8084A944207D20C234FF020
:10015000FF35336000F082FA284670BD1C60F9E775
:100160000002002000400120081600201946104619
:1001700000F088BA1946104600F08CBA13230360C9
:100180004FF0FF307047132303604FF0FF3070478C
:10019000132303604FF0FF307047002302290360F0
:1001A0008CBF002001207047134A10B5146800204E
:1001B00094FAA4F28442B2FA82F208BF4FF0FF32FE
:1001C0000E4C0F4B54F822200E49126818600B6831
:1001D000A2F108049C420ED023B118790A2804BF6A
:1001E0000B2018710A23012002F8043C32F9022C7A
:1001F000054B0C601A8010BD9C020020B00200204C
:10020000A8020020A4020020A0020020092930B585
:1002100003791AD9092B14D842791A4B00F1080432
:1002200053F822507DB12D68856053F822502C6020
:1002300043F822400123144A4479A340146823431D
:100240001360017130BD8460F2E7092BF9D945795B
:100250000C4C54F825303BB11A6893420BBF002375
:10026000126844F825301A60427954F82230002B85
:10027000E7D10123044C03FA02F2236823EA0203C4
:100280002360DEE7B00200209C02002008B5094B85
:100290001B681A79092A02D95B79834205D900F0D3
:1002A000E0F918B10122044B1A6008BDBDE808400E
:1002B00000F05AB8A4020020A802002008B500F0FF
:1002C000C5F90021084B094A1B88094C1BB242F8AA
:1002D0002310084A20681368013B1360FFF796FF5C
:1002E000216000F03DF800BFA0020020F0020020D5
:1002F000A4020020AC02002013444FF0773223F018
:10030000030310B543F8042C5A0758BF4FF0883246
:10031000044658BF43F8082CA3F1040058BFA3F1CA
:1003200008004FF0807340E902430C4B002240F874
:100330000C3C0323022440E905320123024640E934
:1003400007340B2342F8201D42F8043D013B032BE8
:10035000FAD16FF0020340F8443D10BDBD02000821
:1003600000F078F901DFFEE7024A536843F080535A
:100370005360704700ED00E0EFF3098020E9F00FD3
:1003800040F804ED02490968086000F003F8000035
:10039000A4020020FFF708FF04480068016801C9B3
:1003A000B1E8F00F81F3098800470000A4020020A3
:1003B0000D4B0E4A0E496846904203D8984201D927
:1003C000002102E009468D460121042072460242C6
:1003D00002D1EFF3088001E0EFF309802DE9F00F7F
:1003E0006B4600F06FF800BF58010020004001206C
:1003F00000020020042008B5014900F04FFD00BFB5
:100400009C3F0008062008B5014900F047FD00BFE9
:10041000A83F0008072008B5014900F03FFD00BFD4
:10042000BB3F0008082008B5014900F037FD00BFB8
:10043000CD3F0008092008B5014900F02FFD00BF9D
:10044000E13F00080A2008B5014900F027FD00BF80
:10045000F33F00087047704708B5FFF7FBFF6A4697
:10046000114B1249934213D3114B124A12498B423A
:1004700011D30021114B124A934211D3FFF7EBFF26
:1004800000F0C2FC02F0CCFDBDE8084000F0D8BC92
:1004900043F8041BE6E752F8040B43F8040BE6E7C5
:1004A00043F8041BE8E700BF00000020FEE7FEE77A
:1004B00000020020584500089C0200209C020020F9
:1004C000081600202DE9F04F8FB00A93494B924651
:1004D0009A6B044603925A6B9F6A0492DA6A8946C1
:1004E00005921A6BDB6B06920793434B1A68434BDA
:1004F0009A4202D0424802F045FEB9F1000F4FD0B7
:100500000025404802F03EFE2E463F4802F03AFEEB
:1005100039463E4802F0B0FD05993D4802F0ACFD79
:1005200006993C4802F0A8FD07993B4802F0A4FD5B
:100530003A0403D50399394802F09EFD3B0603D5E2
:100540000499374802F098FD364802F01BFE5146E8
:10055000354802F091FDB9F1000F1CD1334802F08B
:1005600011FE3146324802F087FD6946314BC91A07
:1005700003D53148494202F07FFD0A9E2046826839
:10058000C36801698C4641698E46AD46314691E8A3
:10059000F00F4168006801BE0520284900F07EFC8C
:1005A0002069D4E906680890606918F4007F099012
:1005B0002348D4E900B2D4E9023108BF04F1200590
:1005C000CDE90C3118BF04F124050B9202F0DAFDDD
:1005D000DDE90B230D991B480091594602F04CFDB3
:1005E000DDE908123346CDF80080174802F044FDDB
:1005F0008BE700BF00ED00E000000020FEE7FEE713
:100600000140000817400008DC400008E5400008F1
:10061000F540000805410008154100082541000883
:1006200035410008454100084A4100085C41000886
:100630008D41000858010020B5410008E241000842
:1006400046400008614000089E400008EFF310801B
:1006500072B6704762B6EFF31080704780F310886F
:100660007047EFF30580C0B2704700004FF4E131EE
:100670000020024B024A00F0EBB900BF0402002048
:10068000A11000080A460146014800F014BD00BF51
:100690000402002010B50C460A460146002000F076
:1006A0009FF9204610BD00007D4B01282DE9F74F32
:1006B000187006D0022820D04FF0FF3003B0BDE8FC
:1006C000F08F784B1A6842F00E021A601A6842F4F2
:1006D00000721A605A6842F4E0625A60724A136902
:1006E00043F004031361FFF7B1FFBFF34F8F30BF37
:1006F000FFF7B4FF00F0EEFDDEE76A4B6B4F1A68C0
:10070000DFF8AC9122F002021A601A68DFF8A481C7
:1007100042F004021A601A68674E42F001021A6041
:100720001A68B24642F400721A605F4AC3461369FF
:10073000624C43F004031361FFF788FF4B46054604
:100740003A462046CDE9002300F05EFCDDE90023B7
:100750005B49002873D15B4C0023A246DFF868B1E7
:10076000DBF80000818911F400517AD0818900936F
:1007700021F400510904090C81810421DBF80C00EB
:1007800000F0D1F90122009B22700133032B0BF101
:10079000180B04F10104E3D14FF48051012000F063
:1007A000FFFC01280FD1494B1B889A075BD4082115
:1007B000474800F0B8F90821464800F0B4F9032191
:1007C000454800F0B0F94FF48041002000F0E8FC0B
:1007D00001280FD1414B1B889B0746D40821404874
:1007E00000F0A1F908213F4800F09DF903213E489F
:1007F00000F099F9BFF34F8F30BF00F06BFD2F4C25
:10080000DFF8BCB0204600F0FFFB80BB9AF8003058
:100810002BB1364A93899BB243F4005393819AF8E3
:1008200001302BB1324A93899BB243F40053938138
:100830009AF8023063BB2846FFF710FF3CE72068B8
:1008400042F8040BE06843F8040BA0882BF8020B75
:10085000208D04F580648C422AF8020B7FF471AF7E
:1008600079E7217091E70421A2E70421B7E759F85D
:10087000043BE36038F8023BA38057F8043B236055
:1008800036F8023B238504F580645C45BAD1BDE7A8
:10089000184A93899BB243F400539381CBE700BF7E
:1008A000170400200070004000ED00E0C4030020A9
:1008B000F4030020E4030020B40300200000024001
:1008C0000020024014040020F841000800300140DC
:1008D00005000240070002400600024000380040C8
:1008E0000D0402400F0402400E0402400038014093
:1008F000004400400048004008B5FFF7A7FE002272
:10090000014B1A7008BD00BF170400201823434391
:100910000D4A70B5D45823889A069DB209D50C2388
:1009200058430A4AA18813181E7A12583140586851
:1009300090472B0748BFA388054B1B681BB1BDE838
:100940007040FFF711BD70BD404200081804002040
:10095000A80200202DE9F041182444431F4E0D4603
:1009600006EB040898F81470384600F0D7FBB0FB8B
:10097000F5F0072808D83846D8F8041000F0F6FB40
:100980006FF00100BDE8F08133590F289A8922F4F5
:1009900000524FEA02424FEA12429A819989C2B24A
:1009A00011D86FEA41416FEA5141083A89B242F0E9
:1009B00010029981D2B21A819A89002092B242F42F
:1009C00000529A81DEE7C1F30E0199814FF6F07172
:1009D00002F00F0201400A43EDE700BF4042000869
:1009E000022810B503D903200C4900F057FA182348
:1009F00058430B4B1B589889000705D50A44914270
:100A000003D11A885206FCD510BD11F8010B1C88C1
:100A10002406FCD580B29880F1E700BFF0420008C0
:100A200040420008022808B503D90320064900F017
:100A300035FA1822054B02FB0030BDE8084041683A
:100A4000007D00F07BBB00BFF04200084042000880
:100A500002282DE9F84304460F46164603D9032021
:100A6000284900F01BFA0C22182562432648DFF8BB
:100A70009C8081184B60FF2305FB0485D5F80C9002
:100A800086500B724846697C00F04DF8484600F0ED
:100A9000B2F84846E97C00F083F84EB1D5F80890EA
:100AA000297C484600F03FF84846A97C00F078F8D9
:100AB0002046FFF7B7FF1823634358F8035008EBAD
:100AC000030900233946AB8120462B82AB82FFF716
:100AD00041FF9EB199F9153099F81520002B07DBDD
:100AE00002F01F0101228A4009495B0941F82320D5
:100AF00042F22C030020AB81BDE8F88342F20803E8
:100B0000F8E700BFF0420008180400204042000847
:100B100000E100E00020FFF7F9BE0120FFF7F6BE7C
:100B20000220FFF7F3BEF8B5431C0C4637D0012670
:100B300020F00F0500F00F07C0F3832006FA00F144
:100B4000022000F0FBFAFFF781FD03232A6807FA71
:100B500006FC03FA0CF304F0030122EA030201FA93
:100B60000CF111432960E968C4F3810221EA030111
:100B700002FA0CF20A43EA60AA88BE4092B2C4F3B9
:100B8000001422EA0602BC401443A4B2AC80AA6856
:100B9000B6B21343AB602E85FFF760FD0020F8BDB1
:100BA000F8B5431C04460D4624D020F00F0600F093
:100BB0000F07FFF74BFD0323326879008B4022EAD1
:100BC000030202238B401343072F33608CBF04239F
:100BD00000231E440F2304F00704316AA400A3403D
:100BE00021EA030105FA04F40C433462BDE8F8403D
:100BF000FFF734BDF8BD431C07D0012320F00F02DE
:100C000000F00F0003FA00F090617047002000F040
:100C1000C7BC000038B5044C2568FFF7F7FF236810
:100C2000AB42F9D1184338BD44040020034B196886
:100C300019B982B2084600F08FBC70473C0400200E
:100C40002DE9F043294E336803F580333360336870
:100C50001BB9274A1368013313600020254B264D2A
:100C60001A6818602B6884461946244FDFF880E024
:100C7000DFF88C803A6029B1DEF80040D1F80890A6
:100C8000A14517D900B12960BCF1000F10D0002197
:100C9000CCF800103AB3C3B1546859688C4294BF81
:100CA00010461846014612681B6882B90B6038600E
:100CB000BDE8F0834C68D6F8009004EA08044C457F
:100CC000E0D18C4601200968D5E71046EAE70BB968
:100CD0000A60ECE756685D68AE4294BF14461C4655
:100CE0000C602146DFE73B60E2E700BF44040020E0
:100CF000400400204C040020480400205004002040
:100D00000000FFFF2DE9F041002965D10123334F99
:100D1000334D3B602B68CBB9FFF792FF4FF6FF7462
:100D2000FFF774FFA042FBD000244FF000082B68AF
:100D300083B9FFF76BFF1430844228D9FFF780FF97
:100D4000FFF764FF8442FBD30024F0E7FFF75EFF68
:100D50000446EAE75E68FFF759FF844205D8B3B25C
:100D6000834202D91B1A132BE3D82B685E68FFF766
:100D70004DFF844202D8B6B28642F6D82B681A6874
:100D8000C3E901882A60D3E903209047CFE72B68A5
:100D90006BB15E68FFF73EFF063E14308642C6D355
:100DA000002330463B60BDE8F041FFF73FBFFFF74F
:100DB0002DFF8442064602D9FFF742FFC4E700F147
:100DC00014039BB2984204D9FFF720FF8642FBD957
:100DD000F2E74FF6FF76E3E7BDE8F0813C04002040
:100DE0005004002008B50023054A1846054900F0C4
:100DF000EBFBBDE808404FF0FF30FFF717BF00BF27
:100E0000050D000840420F0008B500F0E1F9BDE80B
:100E1000084001210148FFF786BE00BF00040240E0
:100E200008B500F0D1FC034802F026F900F074FC8C
:100E3000002008BD8842000808B500F04FF9FCE723
:100E40001FB50024FFF702FC0D4B0F221B684FF467
:100E5000807102930B4B0C48009301940C2300F01B
:100E600057F80A4B07221B684FF44061CDE9014354
:100E7000074B084800930C2300F04AF8FFF770FA7C
:100E800018020020390E0008540400201C02002023
:100E9000210E0008540500207047000008B50C4BD7
:100EA0000C461A6872B9012203281A6003D17146F0
:100EB000084802F0E1F82146074802F0DDF807484B
:100EC00002F0DAF8FFF7C2FBFFF7E6FFFFF714FDC9
:100ED00054110020C2420008C6420008E242000845
:100EE00038B50B79092B03D903200849FFF7D6FF42
:100EF0004C7901F108020346006818B110F8035C50
:100F0000A542F8D988601A6038BD00BFF0420008D9
:100F10000F2A2DE9F74F05468A469046994637D85D
:100F200010F003030FBF0B46C3F10402043B5B1830
:100F3000A3F1300318BFAD1823F0030319F0080F15
:100F400005EB03041AD12D6003E012600432A242C3
:100F5000FBD30193FFF77AFB012207462849019B47
:100F600051F822600FFA82FBAEB10132212AF7D18B
:100F70003846FFF773FB6FF08A0B3CE02A46E6E742
:100F800001212046FFF742F93846FFF767FB32E0C0
:100F90006FF0150B2FE041F822402A46DDE90C01E5
:100FA000A4F806B0FFF7A8F90E9B164AA3624FF00B
:100FB000FF33C4E90736136819F0010F03F1010389
:100FC0002060C4E90266C4E904666562C4F82CA026
:100FD00084F805802671A6611360D1D10B212046CB
:100FE000FFF714F919F0040FCED13846FFF736FB9E
:100FF0004046FFF74BF9584603B0BDE8F08F00BFFD
:10100000F0020020AC0200200C4B9A6A42F400422D
:101010009A62EFF3138171B65A6942F480725A6191
:101020000278986A5A6922F480725A6181F31388AF
:1010300080F40040C0F3C030704700BF00ED00E016
:10104000F8B505460F46164604463C442046FFF7D1
:10105000DBFF631B08B19E42F7D81846F8BD0000BD
:101060000C4B0D4A102110B59A6000220B4C83F8EE
:101070002210D977A0180132392A80F80013F9D14B
:101080001A6942F010021A615A6942F400725A61F8
:1010900010BD00BF00ED00E00000000800E100E02E
:1010A00038B5054600F0F6FA044605F1100000F0E8
:1010B00063FE204638BDF8B504460D46164600F1DD
:1010C000100732462946204600F0D1FA00B1F8BD9B
:1010D0000121384600F020FEF3E7000073B50E4E04
:1010E0003368019304230DEB03021D46013B995C19
:1010F00011B9002BF9D11D46FFF7A8FA3368019A00
:1011000004469A4202D168B2FFF7CEFA204602B0F6
:10111000BDE87040FFF7A2BA20020020014B186A18
:10112000704700BF58110020024A034B1B5C106A35
:10113000584370475811002002430008012809D085
:1011400002280CD018B9084A536A19435162BFF3F8
:101150004F8F7047044A136A19431162F7E7024A36
:10116000D3691943D161F2E700380240012808D061
:1011700002280CD080B9094A536A23EA010151625E
:101180007047064A136A23EA010111627047034A55
:10119000D36923EA0101D161704700BF00380240E2
:1011A000012809D002280AD060B9084B5B6A0B42BB
:1011B00014BF012000207047044B1B6AF7E7034B64
:1011C000DB69F4E74FF0FF30704700BF00380240A2
:1011D0002DE9F047FFF744FF4FF080510020FFF763
:1011E000ADFF00F077F81A4BFF210220DE690025E1
:1011F000FFF7A4FF6FF0A8474FF0FF386FF4A07916
:10120000F6B2AC0204F1804404F5003420465FFAE3
:1012100085FAFFF7F9FE50B12DB1BAF1010F14D0E4
:10122000C4F8008000E027600135082DE9D1084BA3
:101230000220D96921F0FF013143FFF77FFF00F061
:101240003CFABDE8F04700F005B8C4F80090EBE7C1
:101250000038024038B54FF4A0324FF480614FF0AF
:101260000050FFF7EDFE0425144C4FF400224FF41C
:10127000806120604FF000602571FFF7E1FE4FF4C0
:101280008073A060000A4FF48042E0604FF4006178
:101290000B4823612575FFF7D3FE0A4B25771B68A2
:1012A000A061C3F30B03A3F21643212B8EBF0023CF
:1012B000054AD35C84F8243038BD00BF58110020A3
:1012C00000000808002004E0044300080138FDD1B4
:1012D00070470000774B37B51A68774D42F480723B
:1012E0001A609A6822F47F5222F030029A609A685B
:1012F00022F0EE429A609A6822F003029A6019681E
:101300006E4A0A4000211A60D9602A68022A00F059
:10131000AF80B2F5003F1A6842F480321A6040F0A4
:10132000AC8064490A682B681A42FBD0644B1A6887
:1013300042F004021A601A6842F001021A601A6848
:1013400042F002021A609A691207FCD54FF08051F0
:101350000020FFF7F3FE5B4B1A680092009A22F41C
:10136000C0520092009A42F400620092009A1A6001
:101370005A68D406FCD44F4C062063680093009B47
:1013800023F460430093009B43F440430093009B8D
:101390006360FFF79BFF236843F001032360A368AA
:1013A00023F47D03A360A36843F40003A3602368D0
:1013B00043F08073236023689801FCD51A20FFF75F
:1013C00085FF236823F0807323603A4B1A689101EC
:1013D000FCD49A6822F47D029A602A68B2F5003F34
:1013E0009A680CBF42F4050242F408029A60314B3D
:1013F0001A6842F080721A601A689201FCD540F2B5
:1014000001129B6830490093009B23F00303009373
:101410002B68B3F5003F08BF1146009B43F0030360
:101420000093009A234B9A609A6802F00C020C2AEF
:10143000FAD11A6822EA01021A602449244A116288
:101440009A680092009A22F0F0020092009A0092AC
:10145000009A22F4E0620092009A0092009A22F42C
:1014600060520092009A0092009A9A6003B030BDD8
:101470001A6842F001021A6053E74FF4003242F258
:1014800010702A60019119682A6811427FF449AFEF
:10149000019A01320192019A8242F4DD1A6842F007
:1014A00001021A601A6822F480321A6002232B604B
:1014B00037E700BF0038024080110020FEFFFAEE3F
:1014C000003C024000700040000101000048E801BB
:1014D000581100202DE9F843074600241B4A030158
:1014E000D658DFF86C90338AB58909EBC008ADB2E5
:1014F0001D40022303FA04F22A420AD0B38921468E
:101500009BB223EA0203B381D8F8040059F83730BC
:1015100098470123A3402B420BD0338A214623F066
:1015200001031B041B0C3382D8F8040059F8373030
:1015300098470134042CDCD1064B1B681BB1BDE875
:10154000F843FEF711BFBDE8F88300BF2843000849
:1015500084110020A8020020032910B51ADC0F4BCB
:10156000040103EB00101C59436800201A4001F1EC
:101570000C0304EB83035A60238A9AB2022303FA12
:1015800001F109B222EA01032382A389194389B236
:10159000A18110BD4FF0FF30FBE700BF28430008DA
:1015A000024B00011B58586A704700BF28430008CF
:1015B000044B00011A5813889BB243F001031380B7
:1015C000704700BF2843000801282DE9F84304466E
:1015D0000F4633D81B4D1C4E45F8302005EBC00597
:1015E0006B6006EB001595F80C80A9684FEA0019AE
:1015F0004046FFF7A3FD002356F8096040463380BC
:10160000B3806B68F362FFF78FFDB0FBF7F0012248
:1016100095F90D30013880B2002B3085697BB2829C
:1016200006DB01F01F018A4008495B0941F82320CD
:101630002046FFF7BDFF0020BDE8F8834FF0FF30E4
:10164000FAE700BF841100202843000800E100E011
:101650000020FFF73FBF0120FFF73CBF8268016811
:10166000531C83604368013B1340C85C7047F8B566
:1016700004460F46164615461DB1A268E3689A4215
:1016800001D1701BF8BD2046FFF7E8FF013D07F8C8
:10169000010BF1E7C26830B584684368121B9A42B7
:1016A00008D0C2680468551CC5600020013B134087
:1016B000E15430BD4FF0FF30FBE770472DE9F341B7
:1016C0000446114800F014FFC8B9104801F05AFD53
:1016D0000F4E0D4FDFF83C800A2538460C4900F0CC
:1016E0003FFF18B94046316801F0C6FC013DF4D116
:1016F0000123684621B2019300F090FCECE7002042
:1017000002B0BDE8F08100BF30020020484300086D
:10171000C41500206A4300082DE9D041224B234A1A
:101720001B8887B01BB2CDE90132214B0024009306
:1017300008234FF480611A461E480594FFF7E8FB22
:101740001D491E4800F088F848BB1D4801F01AFDED
:101750001A4FDFF8708004A800F082FC059B002B74
:10176000F9D0384600F064F90646384600F090FAA1
:101770000446384600F0CEF96422B4FBF2F3B0FB25
:10178000F2F096FBF2F102FB1344019002FB1162AE
:101790004046009401F070FC00230593DBE72046EF
:1017A00007B0BDE8D08100BFA00200207A43000846
:1017B000BD160008C411002024020020941100204E
:1017C00086430008A743000808B5FFF70BFBBDE8F8
:1017D000084000F0B3BD30B5044685B000680D4642
:1017E00001F04EF800232A462179009320680DF17C
:1017F0000F0301F0F5F9206801F060F89DF80F0083
:1018000005B030BD73B5044600680D46164601F0BC
:1018100037F800232A46009321793346206801F0E7
:1018200011FA206802B0BDE8704001F047B800002E
:1018300038B5084D2C6801F045F92B689C42F9D168
:1018400004434FF47A70A4FB0040A40A44EA805099
:1018500038BD00BFDC15002030B5044607C9A3B071
:1018600084E8070001F00CF8206800F077FFD02131
:101870002046FFF7B0FF602809D0582807D020681D
:1018800001F01CF84FF0FF35284623B030BD802210
:10189000002102A801F0E8FB206800F0F1FF6023BE
:1018A00000222179CDE900322068882202AB01F0C4
:1018B00071F90546206801F001F845B15B4801F077
:1018C000DBFB206800F0FAFF6FF00105DCE79DF814
:1018D00009209DF8083003EB0223A3819DF80B201B
:1018E0009DF80A3003EB0223E3819DF80D209DF85B
:1018F0000C3003EB022323829DF80F209DF80E305D
:1019000003EB022363829DF811209DF8103003EB56
:101910000223A3829DF813209DF8123003EB0223CB
:10192000E3829DF815209DF8143003EB02232383F6
:101930009DF817209DF8163003EB022363839DF872
:1019400019209DF8183003EB0223A3839DF81B2078
:101950009DF81A3003EB0223E3839DF81D209DF8C8
:101960001C3003EB022323849DF81F209DF81E30BA
:101970009DF8641003EB022363849DF821309DF8E9
:10198000622084F824309DF86130206803EB022344
:10199000E3849DF8633084F828309DF8653003F0C7
:1019A0000F0202EB011262859DF866201B0903EB12
:1019B0000213A3859DF8673084F82E3000F060FF95
:1019C0002B462179F4222068009501F03BF920682C
:1019D00000F074FFA2796379920002F01C0242EADF
:1019E00043122046F52102F0FC02FFF70BFFE27ADA
:1019F0002046F22102F00702FFF704FF227A637A01
:101A000002F0030242EA4312A37AF4219B0003F09E
:101A10001C031A432046D2B2FFF7F4FE206800F000
:101A20004DFF206800F04AFF2EE700BFD0430008BA
:101A300073B50446F421FFF7CEFE227A00F00303CB
:101A400093421BD000F0FC000243F4212046FFF734
:101A5000D9FEFFF7EDFE064600210A2000F014FB38
:101A6000F3212046FFF7B7FE00F00805FFF7E0FE80
:101A7000801BB0F5FA7F16D2002DEDD1206800F062
:101A8000FFFE082300221E4DCDE9003221792B46AE
:101A9000F722206801F07EF80646206800F00EFF6D
:101AA0006EB1184803E001D1002DE7D0164801F0CF
:101AB000E3FA206800F002FF144802B070BD2A79F2
:101AC000EB78120142EA03326B7942EA1310A389E0
:101AD000C3EB121252435B00C3EBD003B4F90E0008
:101AE00012134343B4F910005043801300EBE3207A
:101AF000074B186000EB8000803040F30F20DCE7DC
:101B0000C815002007440008F14300080080FFFFCB
:101B1000D01500202DE9F04104465B4BB4F91A5072
:101B200058781E78000140EA06309E78574B40EA0C
:101B300016161A68B4F91C004FEAE27EB2F5FA32C2
:101B40004EF1FF3EA2FB02C702FB0EF307EB430779
:101B500000FB07F3C1170CFB0131A0FB0C030B4486
:101B600005FB0EF14FEAE57802FB0811A5FB0258D0
:101B70004144490441EAD5316D0428180546B4F9B9
:101B8000140043EB010100FB0EFEB4F9183001EB29
:101B9000C301C31702FB03EEB4F91630A0FB020227
:101BA0005F4372444FEAE37E0CFB0E77A3FB0C3CD1
:101BB0001203BC441B0A42EA105243EA0C630003BE
:101BC0001B18608A42EB2C22A3FB003C02F500426A
:101BD00000FB02CC4FEAEC7353EA6C004FEA6C0254
:101BE0004FD0C6F5801000F0004646EA5006C00708
:101BF000401B40F6354566EB0106A0FB050105FBE1
:101C0000061101F051F88446B4F922204F1302FB6B
:101C100007F6430B43EAC143D51703FB0566A2FB56
:101C20000325354402FB07F603FB0566A2FB0323ED
:101C30001E44530EB4F9205043EAC6131B1841EB5F
:101C400066666943EA1702FB0011A5FB0C5CB4F958
:101C50001E006144ED0C45EA41355D194FEAE07420
:101C600046EBE1412D0A240144EA107445EA01657E
:101C70000001401944EB2124000A40EA0460BDE859
:101C8000F0814FF0FF30FAE7C8150020D015002092
:101C900010B51F4B90F92E101C681E4BA4F59634FE
:101CA000DB8861435BBA9AB2B0F92A3089121B050E
:101CB000C3EB8233B0F92C2004FB123303F58043CD
:101CC000DA1390F828306343DB1203F500434B43EB
:101CD000B0F926109B1203F500134B4303F5005394
:101CE0009B135343DA13524390F82400D21150430C
:101CF000A3EB201020EAE070B0F1C85FA8BF4FF05E
:101D0000C8506423000B5843C0F38F2010BD00BFA0
:101D1000D0150020C815002070B504460D46FEF70A
:101D200095FC236806463BB94FF0FF332360FEF76E
:101D300095FC0125284670BDC5B10E4B02211D68DA
:101D40002846FEF763FA236801330AD105F1080338
:101D500023600023AB603046FEF780FCFEF704FBF7
:101D6000E7E729462046FFF7BBF8F4E7FEF776FCE5
:101D7000E0E700BFA402002070B50446FEF766FC51
:101D8000256806461DB9BDE87040FEF767BC6B1CB0
:101D900002D100232360F6E7284650F808390B21CA
:101DA0002360FEF733FA236813B94FF0FF33236043
:101DB00015F8034C3046FEF751FC2046BDE8704054
:101DC000FEF764BAF8B505460E46FEF73FFC3B4BFE
:101DD0003B4A1B8807461BB252F823301A6A002A76
:101DE00066D0D3E90542A24262D0621C5A61DA6928
:101DF000144046B91A6932B9621C04D13846FEF75C
:101E00002DFC2046F8BD002C56DB1A6A02EBC402FA
:101E100092E8030085E803001E69002E42D0326874
:101E2000002C1A610DDBD3E906255969186A511A8D
:101E30008D42B1BF4FF0FF32511C2A40996100EB37
:101E4000C205736893E8030085E8030016F8043CB4
:101E5000052B25D000230B217360A6F10800FEF7A7
:101E6000D5F916F8034C3846FEF7F8FB0E2C12D8BD
:101E70002046FEF70BFA0EE018460321FEF7C6F9DE
:101E80003846FEF7EBFBFEF76FFA0E4B1B681B792B
:101E9000032BD8B201D00124B3E70B49FEF7FEFFB4
:101EA0000F24E0E7002CE7DB3846FEF7D7FBF2E72C
:101EB0004FF0FF34002E9DD0DD60ADE7A002002082
:101EC000F0020020A4020020F042000810B5D0E982
:101ED000063244691C1BA24201DA002010BD5C1CC2
:101EE00013408461F9D4026A03C902EBC30383E897
:101EF00003000120F2E700002DE9F8431D46264BC0
:101F0000064653F82170254B91461B8803803FB944
:101F10002846FEF7A3FB4FF0FF342046BDE8F883C8
:101F20003B79032B2ED01E4B01463846D3F8008058
:101F3000FFF7CCFF044650B12846FEF78FFB98F818
:101F40000430052B01D1FEF70FFA0124E5E7B9F1C2
:101F5000000F03D12846FEF781FBDEE798F8043036
:101F60004046052B0CBF05210421C8F80C60FEF784
:101F70004DF9414607F11000FEF7B2FF2846FEF783
:101F80006DFBE0E7FB6803C883E803000B213846DC
:101F9000FEF73CF9F2E700BFF0020020A0020020AB
:101FA000A402002038B50446FEF750FB074B21463B
:101FB0001B8805462380064B1868FFF787FF0446F9
:101FC0002846FEF74BFB204638BD00BFA00200208C
:101FD000A402002008B50F4B53F82130B3B12122E1
:101FE00002801A79032A0BD103C8DA6882E8030059
:101FF00018460B21FEF70AF90120074B186008BDAF
:1020000001461846BDE80840FFF760BF4FF0FF30BB
:10201000F5E700BFF0020020A802002070B50446DA
:102020000D46FEF71EFB28B129462046BDE870404C
:10203000FFF7D0BF094B1B881BB2AB4204D120462F
:10204000BDE87040FFF7AEBFFEF700FB2946034630
:1020500001222046BDE87040FFF74EBFA0020020DD
:102060000121FFF7AFBEFFF787BE38B5044600F089
:1020700029FD0546C4F30E0400F024FD431BC3F301
:102080000E039C42F8D838BD30B587B004460D46E3
:10209000FEF7E7FA50B11DB103200F49FEF7FEFE2F
:1020A000204607B0BDE83040FFF7DFBF0B4BCDE95E
:1020B00002000090012168460493CDF814D0FFF788
:1020C0002BFE2A46214601A800F0E2F901216846CC
:1020D000FFF722FE07B030BDF0420008672000087D
:1020E00038B5044C256800F0EDFC2368AB42F9D10B
:1020F000184338BDDC150020044B1A6822B9044986
:10210000C0F30E0000F0EEBC704700BFD4150020F5
:102110000522000810B5094A136843B19C6881681C
:102120008C4207D303D15C6841688C4202D90360BA
:10213000106010BD1A461B68EFE700BFE0150020D5
:102140002DE9F043294E336803F5004333603368CB
:102150001BB9274A1368013313600020254B264D15
:102160001A6818602B6884461946244FDFF880E00F
:10217000DFF88C803A6029B1DEF80040D1F8089091
:10218000A14517D900B12960BCF1000F10D0002182
:10219000CCF800103AB3C3B1546859688C4294BF6C
:1021A00010461846014612681B6882B90B603860F9
:1021B000BDE8F0834C68D6F8009004EA08044C456A
:1021C000E0D18C4601200968D5E71046EAE70BB953
:1021D0000A60ECE756685D68AE4294BF14461C4640
:1021E0000C602146DFE73B60E2E700BFDC15002022
:1021F000D8150020E4150020E0150020E815002087
:102200000080FFFF2DE9F04100F05CFC0123324F1C
:10221000324D3B602B68044683B14FF000082B68B9
:10222000B3B900F04FFC0330844230D9FFF788FF88
:1022300000F048FC8442FBD30024F0E7FFF780FF66
:1022400047F6FF7400F03EFCA042FBD00024E4E718
:102250005E6800F037FC844206D8C6F30E03834262
:1022600002D91B1A022BDCD82B685E6800F02AFC0E
:10227000844203D8C6F30E068642F5D82B681A6846
:10228000C3E901882A60D3E903209047C7E72B6898
:1022900063B15E68FFF724FF03308642BFD300239B
:1022A00030463B60BDE8F041FFF726BF00F00AFC76
:1022B0008442064602D9FFF743FFBDE7C31CC3F3C0
:1022C0000E03984204D900F0FDFB8642FBD9F2E7E9
:1022D00047F6FF76E3E700BFD4150020E81500209D
:1022E000134A136883420FD11B68136013B15868F7
:1022F000FFF702BF47F6FF70FAE7984202D1036882
:10230000136070471A461B68002BF6D1094A136800
:102310001BB9094A13682BB970479842EFD01A4687
:102320001B68F5E79842EAD01A461B68F3E700BF3E
:10233000E8150020E4150020E015002008B500F0A5
:102340006DFBBDE808404FF0FF30FFF7D5BE000041
:10235000F8B504460D46FFF7C3FE002323602B1A91
:10236000032B06460ED8C5F30E0500F0ABFB8542E5
:10237000FBD300F0A7FB8542FBD8D4E90330984794
:102380000020F8BDFEF762F9636807460BB9A36841
:1023900013B12046FFF7A4FF47F6FE731F4AAB4375
:1023A00008BF023D1368AE4288BF0133A3601368C3
:1023B000A26865609A4207D8194B1A6825F4FF4352
:1023C00023F07F039A4206D02046FFF7A3FE38464B
:1023D000FEF744F9D4E7C6F30E06B5420FD9114B08
:1023E00019461A6812B15068854214D222601C60E6
:1023F0000B689C42EBD12846FFF77EFEE7E70A4ACE
:10240000136813B159688D4202D223601460DEE76D
:102410001A461B68F5E713461268E3E7D815002053
:10242000DC150020E8150020E415002038B504462E
:10243000FEF70CF9636805460BB9A36813B1204693
:10244000FFF74EFF2846BDE83840FEF707B9C368DE
:1024500070B504460D46D3B1FFF7E8FF022D0ED844
:1024600000F030FB064600F02DFB831BC3F30E0388
:102470009D42F8D8D4E90330BDE870401847FFF713
:102480002FFE29182046BDE87040FFF761BF70BDE0
:102490002DE9F04704460E4615461AB9BDE8F04747
:1024A000FFF7D5BFFEF7D2F8636807460BB9A368FC
:1024B00013B12046FFF714FFDFF83090FFF710FE4E
:1024C000D9F800A08046FFF70BFE8045F6D83618F5
:1024D000554428BF013520466660A560FFF71AFE07
:1024E0003846BDE8F047FEF7B9B800BFD815002060
:1024F00030B5044685B018B903201649FEF7CEFC66
:10250000006800F0BDF9206800F028F900250223DA
:10251000CDE900357E22442120680DF10E0300F044
:1025200039FBA84209DA0C4800F02CFE206800F0C4
:10253000C5F94FF0FF3005B030BD44F65413BDF877
:102540000E209A4201D00548EEE7206800F0B6F967
:102550002846F0E7F04200082844000851440008EB
:102560002DE9FF410E46054618B903202249FEF722
:1025700095FC02274FF00008006800F081F9C223A3
:10258000CDE90078ADF80E300122442128680DF124
:102590000E0300F02FFB642400210A20FFF774FDD6
:1025A000CDE900780DF10E0301224421286800F0E6
:1025B000F1FABDF90E30002B09DB013CECD12868A3
:1025C00000F07CF90020346004B0BDE8F081CDE972
:1025D00000780DF10E0300224421286800F0DAFA99
:1025E000BDF80E305BBAC3F30B04C3F303339C4056
:1025F0006423B4FBF3F4E2E7F042000802464FF62E
:10260000FF70138B9B0705D5431E9BB200B9704723
:102610001846F6E7002814BF00206FF073007047DB
:1026200008B5038823F480631B041B0C0380038814
:102630009BB243F4007303804FF6FF730288920548
:102640000AD55A1E92B22BB9FFF7D8FF002805DB36
:10265000002005E01346F1E7002BF5D16FF0730081
:1026600008BDF8B500244FF6FF77868A838AB5B295
:1026700023F4E0631B041B0C7605838206D5530705
:1026800001D4FFF7CDFF6FF0040006E015F44073AE
:1026900004D0FFF7C5FF6FF00A00F8BD0D4204F14A
:1026A000010406D1BC42E0D1FFF7BAFF6FF073001E
:1026B000F3E71846F1E700002DE9F0410F46154613
:1026C0001E46044618B903202349FEF7E7FBD0074E
:1026D0003CD4238B02F00802990701D4002A35D19B
:1026E000A38A23F4E0631B041B0CA3828ABB238808
:1026F00005F0FB089BB243F4A0634246012120464B
:102700002380FFF7AEFF00281EDBBFB215F00405E3
:10271000278207D18E4205D1218821F480610904E6
:10272000090C2180424602212046FFF79AFF431DF3
:1027300008BF6FF00500238B35B9012E04D1238823
:102740009BB243F400732380BDE8F0816FF05E001C
:10275000FAE70020F8E700BFF042000801282DE961
:10276000F04103D903203E49FEF798FB00223D4E7D
:1027700047013D4BF45943F8202006EB4010002C54
:10278000F0D00379012B5ED0022B5FD0002B58D103
:1027900044F62063856906EB0708D8F8141098F80A
:1027A0001200B5FBF3F5FEF7C9FC98F91C2098F868
:1027B0001C30002A4DDB4FF0100C2C4803F01F0397
:1027C000811881F800C30121520901FA03F340F88E
:1027D00022303E44D6F8088015214046FEF7A3F982
:1027E000F76815213846FEF79EF94046317CFEF722
:1027F000D7F93846717CFEF7D3F94FF48062B3699C
:1028000022801B4AADB2B3FBF2F39BB243F4807259
:1028100001339BB2A280A583238423899BB243F416
:10282000804323812389C3F30E032381A38A23F4E6
:10283000E0631B041B0CA38223889BB243F00103BB
:102840002380BDE8F08185690A4BA4E785690A4BBE
:10285000A1E70A4A03F00F031A4410231376B8E7DE
:10286000F042000878440008EC15002000E100E088
:1028700040420F00400D030000350C00FCEC00E06E
:10288000012810B5044603D903200949FEF706FBC9
:102890000848012100EB8400FFF73EFA064800EBF0
:1028A0004414A07C6169FEF749FC002010BD00BF04
:1028B000F0420008EC15002078440008012810B50B
:1028C000044603D903200849FEF7E8FA074B03EB57
:1028D0004013987C5969FEF749FC054800EB8400D9
:1028E000FFF74AFA002010BDF042000878440008C3
:1028F000EC1500202DE9F047012816461D469DF8ED
:1029000020A003D903202349FEF7C8FA224A400138
:102910001458490041F0010152462046C9B2FFF760
:10292000CBFE002818DB0023771E0AF00409AB4217
:1029300007D11AF0040F2BD12046BDE8F047FFF76E
:102940005DBE03F10108A84508D05246402120464B
:10295000FFF787FE002816DABDE8F087B9F1000F0F
:10296000F3D1A28A520608D5012D06D1228A20462B
:10297000F254BDE8F047FFF753BE2046FFF750FE84
:102980000028E2DAE8E7238A07F8013F4346CEE76A
:102990000020E1E7F042000878440008F8B501287B
:1029A00014461F469DF8186003D903201949FEF705
:1029B00075FA194B40011D58002DF6D0490000232F
:1029C0003246284601F0FE01FFF776FE00281FDBA5
:1029D0002744BC4232464FF0800128460FD1FFF712
:1029E00040FE002814DB730711D42846FFF718FEB9
:1029F00000280DDB2846BDE8F840FFF7FFBDFFF7D4
:102A000030FE002804DB14F8013B2B82E1E70020B4
:102A1000F8BD00BFF04200087844000808B500F097
:102A200031F900F01FF9224B5A6B22F440325A63FD
:102A30005A6B42F482025A63CA22A3F504335A62E3
:102A400053225A62DA6842F08002DA60DA6851068C
:102A5000FCD500229A608022DA60164A1A619A68D0
:102A600022F040029A609A6822F400629A60DA6862
:102A700022F08002DA60104BDA685206FCD4FF22A2
:102A80005A620E4BDA6822F40032DA609A6842F435
:102A900000329A601A6842F400321A605A6942F4AD
:102AA00000325A614FF40072054B5A6008BD00BFF6
:102AB00000380240FF7F1F00002800400004014052
:102AC00000E100E0064BDA6822F02002DA60DA6802
:102AD0009206FCD5986A5B68C0F5FF407F3070476E
:102AE0000028004010B5CA24144B5C6253245C6279
:102AF0009C6824F488549C60DC68E407FCD5C0F52D
:102B0000FF40DC697F30C0F30E0040F0706044F09D
:102B10008034DC615864986840F4807098609868EC
:102B200040F480509860D86820F48070D8600448E1
:102B3000016004490A60FF225A6210BD002800406B
:102B4000F8150020F415002010B50D4CE368DB05E6
:102B50000ED50C4B1B6813B10B4A10689847E368FD
:102B60000A4A23F48073E360536943F400335361EA
:102B7000074B1B681BB1BDE81040FDF7F5BB10BD4E
:102B800000280040F8150020F41500200004014042
:102B9000A8020020F0B585B09DF82C40054614F041
:102BA0000C0F0E461F46ADF80E2016D114F0020F82
:102BB00044F0040300930DF10E0214BF022301231D
:102BC000FFF7ECFE002806DB3A46314628460A9B12
:102BD0000094FFF78FFE05B0F0BD6FF05E00FAE7DE
:102BE00013B59DF81040019401240094FFF7D2FF23
:102BF00002B010BDF0B585B09DF82C40054614F02C
:102C00000C0F0E461F46ADF80E2018D114F0020F1F
:102C100044F0040300930DF10E0214BF02230123BC
:102C2000FFF7BCFE002808DB44F008043A463146B2
:102C300028460A9B0094FFF7B1FE05B0F0BD6FF087
:102C40005E00FAE71FB58DF80F309DF8183001933C
:102C5000012300930DF10F03FFF7CCFF05B05DF8E2
:102C600004FB0000024A136843F48073136070474A
:102C700000700040024A136823F4807313607047A9
:102C80000070004008B5FFF7EDFF064B5A6B42F4A9
:102C900080725A635A6B9205FCD5BDE80840FFF775
:102CA000E9BF00BF003802407BB972B90029BEBF3E
:102CB00000204FF0004106E008BF00281CBF6FF065
:102CC00000414FF0FF3000F0A9B9ADF1080C6DE9FB
:102CD00004CE002909DB002B1ADB00F035F8DDF803
:102CE00004E0DDE9022304B07047404261EB41019A
:102CF000002B1BDB00F028F8DDF804E0DDE90223FF
:102D000004B0404261EB4101524263EB4303704720
:102D1000524263EB430300F017F8DDF804E0DDE90D
:102D2000022304B0404261EB41017047524263EB21
:102D3000430300F009F8DDF804E0DDE9022304B004
:102D4000524263EB430370472DE9F047089E0D465E
:102D500004468846002B4DD18A42944668D9B2FA7F
:102D600082F252B101FA02F3C2F1200120FA01F11C
:102D70000CFA02FC41EA030894404FEA1C41B8FBFC
:102D8000F1F71FFA8CFE01FB178807FB0EF0230CEE
:102D900043EA084398420AD91CEB030307F1FF35C5
:102DA00080F01E81984240F21B81023F63441B1A4F
:102DB000B3FBF1F001FB103300FB0EFEA4B244EABA
:102DC0000344A6450AD91CEB040400F1FF3380F04C
:102DD0000981A64540F20681644402380021A4EB33
:102DE0000E0440EA07401EB10023D440C6E9004368
:102DF000BDE8F0878B4208D9002E00F0EE8000215C
:102E0000C6E900050846BDE8F087B3FA83F100295A
:102E10004AD1AB4202D3824200F2FC80841A65EBB5
:102E2000030301209846002EE2D0C6E90048DFE700
:102E300002B9FFDEB2FA82F2002A40F09180A1EBE3
:102E40000C0001214FEA1C471FFA8CFEB0FBF7F380
:102E500007FB1300250C45EA00450EFB03F0A842D2
:102E600008D91CEB050503F1FF3802D2A84200F295
:102E7000CE8043462D1AB5FBF7F007FB10550EFB2D
:102E800000FEA4B244EA0544A64508D91CEB04049C
:102E900000F1FF3502D2A64500F2B6802846A4EB29
:102EA0000E0440EA03409EE7C1F120078B4022FA5E
:102EB00007FC4CEA030C25FA07FA4FEA1C49BAFB57
:102EC000F9F820FA07F309FB18AA8D401FFA8CFEC7
:102ED0001D4300FA01F308FB0EF02C0C44EA0A44EF
:102EE000A04202FA01F20BD91CEB040408F1FF3AEC
:102EF00080F08880A04240F28580A8F102086444F6
:102F0000241AB4FBF9F009FB104400FB0EFEADB22D
:102F100045EA0444A64508D91CEB040400F1FF353A
:102F20006CD2A6456AD90238644440EA0840A0FB46
:102F30000295A4EB0E04AC42C846AE4656D353D01D
:102F4000002E69D0B3EB080264EB0E0422FA01F301
:102F500004FA07F71F43CC40C6E90074002147E795
:102F60000CFA02FCC2F1200125FA01F34FEA1C47DA
:102F700020FA01F195400D43B3FBF7F107FB113344
:102F80001FFA8CFE280C40EA034001FB0EF383423B
:102F900004FA02F408D91CEB000001F1FF382FD22B
:102FA00083422DD902396044C01AB0FBF7F307FB06
:102FB0001300ADB245EA004503FB0EF0A84208D964
:102FC0001CEB050503F1FF3816D2A84214D9023BC9
:102FD0006544281A43EA014138E73146304607E79D
:102FE0002F46E4E61846F9E64B45A9D2B9EB0208AC
:102FF00065EB0C0E0138A3E74346EAE7284694E761
:103000004146D1E7D0467BE76444023847E7023BBC
:1030100065442FE7084606E73146E9E6704700BFFA
:1030200070B500260C4D0D4C641BA410A64209D1AE
:10303000FDF77AF800260A4D0A4C641BA410A6423C
:1030400005D170BD55F8043B98470136EEE755F8B9
:10305000043B98470136F2E7504500085045000808
:10306000504500085045000803460244934200D1F1
:10307000704703F8011BF9E70FB40A4B13B51C683E
:1030800024B1A36913B9204600F05AFA05AB2046D3
:10309000049AA168019300F05DFC02B0BDE8104005
:1030A00004B070473402002070B50E46054618B1D2
:1030B00083690BB900F044FAAB69AC6813B92846D0
:1030C00000F03EFA2C4B9C4220D16C68636EDB070B
:1030D00005D4A389980502D4A06D00F0CFFAA38986
:1030E00019071DD52369DBB1013EA36816F8011F3E
:1030F000013BA36039BB002B38DA22460A2128465F
:1031000000F048F8013011D00A2511E01B4B9C4219
:1031100001D1AC68DAE71A4B9C4208BFEC68D5E7EE
:103120002146284600F088F80028DDD04FF0FF3512
:10313000636EDA0705D4A3899B0502D4A06D00F065
:103140009EFA284670BD002B04DAA2699A4206DC7A
:103150000A2904D023685A1C22601970C5E7224648
:10316000284600F017F80130BFD1DFE70A252368B1
:103170005A1C22601D70DBE7DC440008FC44000898
:10318000BC440008024B01461868FFF78DBF00BF22
:1031900034020020F8B50E461446054618B183697E
:1031A0000BB900F0CDF9214B9C422BD16C68A3697F
:1031B000A360A3891A072FD523696BB323692068FD
:1031C000F6B2C01A63693746834204DC21462846BA
:1031D00000F022F930BBA3680130013BA3602368F3
:1031E0005A1C22601E706369834204D0A389DB07E6
:1031F00006D50A2E04D12146284600F00DF988B9DB
:103200003846F8BD0A4B9C4201D1AC68CFE7094B68
:103210009C4208BFEC68CAE72146284600F00CF83B
:103220000028CBD04FF0FF37EAE700BFDC440008AE
:10323000FC440008BC440008324B70B51D680646CB
:103240000C4625B1AB6913B9284600F079F92E4B2D
:103250009C420FD16C68A389B4F90C2019072CD4B7
:10326000DD0611D40923336042F040034FF0FF30F4
:10327000A3813EE0254B9C4201D1AC68EBE7244B97
:103280009C4208BFEC68E6E7580712D5616B41B174
:1032900004F14403994202D0304600F057FA00236B
:1032A0006363A38923F02403A3810023636023695C
:1032B0002360A38943F00803A38123694BB9A38941
:1032C00003F42073B3F5007F03D02146304600F0AD
:1032D000FDF9A089B4F90C2010F001030AD00023F5
:1032E000A36063695B42A361236943B910F0800066
:1032F000BAD170BD810758BF6369A360F4E70020AD
:10330000F7E700BF34020020DC440008FC4400085A
:10331000BC4400088A89F8B5054610070C4657D406
:103320004B68002B04DC0B6C002B01DC0020F8BD8B
:10333000E66A002EFAD0002312F480522F682B6028
:1033400032D0606DA3895A0705D56368C01A636BD4
:103350000BB1236CC01A00230246E66A2846216A94
:10336000B047431CA38906D129681D292CD8294AB6
:10337000CA40D60728D5002262602269D90422609B
:1033800004D5421C01D12B6803B96065616B2F60C5
:103390000029CBD004F14403994202D0284600F022
:1033A000D5F900206063C2E7216A01232846B047AF
:1033B000411CC7D12B68002BC4D01D2B01D0162B6C
:1033C00001D12F60B2E7A38943F04003A381AEE7A8
:1033D0000F69002FAAD0930718BF00230E6808BFFB
:1033E0004B69F61B0F608B60002E9FDD33463A461B
:1033F0002846216AD4F828C0E047002806DCA389C3
:103400004FF0FF3043F04003A38190E70744361AA2
:10341000EAE700BF0100402038B50B6905460C46BD
:1034200013B90025284638BD18B183690BB900F0DF
:1034300087F8144B9C421BD16C68B4F90C30002BFC
:10344000EFD0626ED00704D4990502D4A06D00F0CD
:1034500015F928462146FFF75DFF636E0546DA073A
:10346000E0D4A3899B05DDD4A06D00F008F9D9E76D
:10347000054B9C4201D1AC68DFE7044B9C4208BF7E
:10348000EC68DAE7DC440008FC440008BC440008AF
:10349000002310B50446C0E90033C0E9043383605B
:1034A00081814366C2818361194608225C30FFF73F
:1034B000DBFD054B24626362044BA362044BE362B1
:1034C000044B236310BD00BFE13E0008033F00082A
:1034D0003B3F00085F3F0008014900F0AFB800BF64
:1034E00019340008682270B54D1E55430E4605F18B
:1034F000740100F093F9044640B10021C0E90016C0
:103500000C30A06005F16802FFF7AEFD204670BDEB
:10351000014800F0B3B800BFFD150020014800F0DD
:10352000AEB800BFFD150020014800F0A7B800BFED
:10353000FE150020014800F0A2B800BFFE150020D3
:1035400010B50446FFF7F0FFA3691BB1BDE81040BA
:10355000FFF7F0BFC4E912332365134B134A1B680E
:10356000A262A34208BF0123204608BFA36100F066
:103570001FF86060204600F01BF8A060204600F0B5
:1035800017F800220421E0606068FFF781FF012244
:103590000921A068FFF77CFF02221221E068FFF7F3
:1035A00077FF0123A361D1E7B8440008D9340008AC
:1035B000F8B50746FFF7ACFF1E4B1E68B36913B999
:1035C0003046FFF7BDFF4836D6E90134013B03D54D
:1035D00033680BB33668F7E7B4F90C50D5B9164B1E
:1035E00004F15800E360656600F047F8FFF796FFC6
:1035F00008222946C4E90155C4E904552560A5619E
:1036000004F15C00FFF730FDC4E90D55C4E9125523
:103610002046F8BD6834D9E704213846FFF762FF39
:10362000044630600028D5D1FFF778FF0C233B60BB
:10363000EEE700BFB84400080100FFFF2DE9F843A2
:1036400006468846002700F14804D4E90195B9F1FF
:10365000010905D52468002CF7D13846BDE8F88368
:10366000AB89012B07D9B5F90E30013303D02946B8
:103670003046C04707436835E9E7704770477047F1
:1036800070B50E46B1F90E10144600291D4696B0CD
:1036900008DA0022B6F90C302A601A0610D44FF46A
:1036A00080630EE06A46FCF773FD0028F1DB019AA7
:1036B00002F47042A2F500535A425A412A60EEE7E2
:1036C00040230020236016B070BD00008B8973B5C5
:1036D0009D0706460C4607D504F147032360236186
:1036E0000123636102B070BD6A4601ABFFF7C8FFFA
:1036F00000990546304600F091F848B9B4F90C300D
:103700009A05EFD423F0030343F00203A381E3E718
:103710000D4BB362A389206043F08003A381009B1B
:1037200020616361019B5BB13046B4F90E10FCF778
:1037300034FD28B1A38923F0030343F00103A381DF
:10374000A0890543A581CDE7D934000838B50546E1
:10375000002940D051F8043C0C1F002BB8BFE418DE
:1037600000F010FC1C4A136833B9636014602846EB
:10377000BDE8384000F00CBCA34208D920682118ED
:103780008B4201BF19685B6809182160EDE71A4692
:103790005B680BB1A342FAD911685018A0420BD153
:1037A00020680144501883421160E0D118685B68BA
:1037B000014411605360DAE702D90C232B60D6E78D
:1037C000206821188B4201BF19685B6809182160C5
:1037D00063605460CBE738BD0016002070B50E4E14
:1037E0000C463168054611B9FCF7A2FC3060214651
:1037F0002846FCF79DFC431C0AD0C41C24F003049B
:10380000A04207D0211A2846FCF792FC013001D1D2
:103810004FF0FF34204670BD041600202DE9F04122
:10382000CD1C25F0030508350C2D38BF0C25002DC7
:10383000074601DBA94205D90C2300263B60304630
:10384000BDE8F0812E4E00F09DFB33681C4634BB72
:1038500029463846FFF7C2FF431C04464DD1346861
:103860002646002E40D123683146384604EB030833
:10387000FCF75EFC80453AD1216803356D1A25F0CE
:10388000030508350C2D38BF0C2538462946FFF7AF
:10389000A5FF01302BD023682B4423600EE0226863
:1038A000521B1ED40B2A16D96119A342256018BFDA
:1038B0005960636808BF316062514B60384604F15B
:1038C0000B0600F065FB26F00706231DF21AB6D0A2
:1038D0009B1BA350B3E76268A3420CBF32605A60DF
:1038E000ECE723466468B2E734467668B9E70C2310
:1038F00038463B6000F04CFBA1E72560DEE700BFE7
:1039000000160020936810B4013B002B936007DA87
:103910009469A34201DB0A2902D110BCFFF73ABC2B
:103920001368581C10601970084610BC7047F8B531
:1039300006460F461446D518AC4201D1002007E0D8
:103940003A46304614F8011BFFF7DCFF431CF3D165
:10395000F8BD00002DE9F04F0D4614469846064686
:103960009DB018B183690BB9FFF7EAFD894B9D4201
:103970001BD175686B6ED90705D4AB899A0502D443
:10398000A86DFFF77BFEAB891B0701D52B69EBB94F
:1039900029463046FFF750FCC0B16B6EDC070ED5F0
:1039A0004FF0FF301DB0BDE8F08F7B4B9D4201D141
:1039B000B568DFE7794B9D4208BFF568DAE7AB8968
:1039C0009805EDD4A86DFFF75AFEE9E700230993A7
:1039D00020238DF8293030234FF00109CDF80C80D9
:1039E000DFF8BC818DF82A3023469A4613F8012B64
:1039F0000AB1252AF9D1BAEB040B0BD05B4622465B
:103A000029463046FFF793FF013000F0AA80099A5B
:103A10005A4409929AF80030002B00F0A28000234B
:103A20004FF0FF32CDE905230AF1010A0493079311
:103A30008DF853301A935446052214F8011B584848
:103A400000F091FA049AD8B9D10644BF20238DF82A
:103A50005330130744BF2B238DF853309AF80030AE
:103A60002A2B15D0544600204FF00A0C079A214605
:103A700011F8013B303B092B4ED9B0B1079214E04D
:103A8000A0EB080309FA03F31343A2460493D2E719
:103A9000039B191D1B680391002BBBBF5B4242F0C7
:103AA000020207930793B8BF049223782E2B0CD100
:103AB00063782A2B35D1039B02341A1D1B680392AD
:103AC000002BB8BF4FF0FF330593DFF8D8A00322D7
:103AD0005046217800F047FA40B14023A0EB0A009D
:103AE00003FA00F0049B01340343049314F8011B10
:103AF00006222D488DF8281000F035FA00283FD016
:103B00002A4B1BBB039B073323F0070308330393A4
:103B1000099B3B44099367E70C4601200CFB0232EA
:103B2000A5E700234FF00A0C1946013405932046FF
:103B300010F8012B303A092A03D9002BC5D0059182
:103B4000C3E7044601230CFB0121F0E703AB00931C
:103B50002A463046164B04A9AFF300800746781C6E
:103B6000D6D16B6ED90705D4AB899A0502D4A86D5E
:103B7000FFF785FDAB895B063FF512AF099811E7AA
:103B800003AB00932A463046094B04A900F082F8A3
:103B9000E4E700BFDC440008FC440008BC44000823
:103BA0001C450008224500082645000800000000CA
:103BB0002F3900082DE9F047164699468A680B69A7
:103BC00007469342B8BF1346336091F843200C4632
:103BD000DDF820800AB1013333602368990642BFC3
:103BE000336802333360256815F0060506D104F109
:103BF000190AE36832689B1AAB4228DC94F8432028
:103C0000131E226818BF012392062DD44946384658
:103C100004F14302C047013020D02368E56803F077
:103C20000603042B18BF002532684FF00006A36876
:103C300008BFAD1A226908BF25EAE5759342C4BFE3
:103C40009B1AED181A34B5421AD1002008E001235E
:103C5000524649463846C047013003D14FF0FF3045
:103C6000BDE8F0870135C4E73020E11881F8430052
:103C70005A1C94F845102244023382F84310C5E7D9
:103C80000123224649463846C0470130E6D0013676
:103C9000D9E700002DE9FF470F7E9146782F804637
:103CA0000C469A460C9D01F1430207D8622F0AD8B0
:103CB000002F00F0D980582F00F0A48004F14205B5
:103CC00084F842703AE0A7F16303152BF6D801A1FE
:103CD00051F823F02D3D0008413D0008BD3C00088F
:103CE000BD3C0008BD3C0008BD3C0008413D00084B
:103CF000BD3C0008BD3C0008BD3C0008BD3C0008C0
:103D00004F3E0008713D0008313E0008BD3C0008F0
:103D1000BD3C0008713E0008BD3C0008713D000834
:103D2000BD3C0008BD3C0008393E00082B681A1D48
:103D30001B682A6004F1420584F842300123A4E0A4
:103D400020682968060601F104030AD50E682B6075
:103D5000002E03DA2D23764284F843300A235E488E
:103D600019E00E6810F0400F2B6018BF36B2EFE775
:103D70002B682068191D2960010601D51E6802E024
:103D80004606FBD51E886F2F0CBF08230A23524816
:103D9000002184F843106568002DA8BF2168A56044
:103DA000A4BF21F0040121600EB9002D4DD01546AD
:103DB000B6FBF3F103FB1167C75D05F8017D3746DC
:103DC000BB420E46F4D9082B0BD12368DE0708D579
:103DD000236961689942DEBF302305F8013C05F193
:103DE000FF35521B22614B4621464046CDF800A0CC
:103DF00003AAFFF7DFFE01304CD14FF0FF3004B0D3
:103E0000BDE8F087344881F845702968236851F887
:103E1000046B29601D0614D5DF0744BF43F020035F
:103E200023601EB9236823F0200323601023AFE72B
:103E3000236843F0200323607823284884F8453022
:103E4000E3E7590648BFB6B2E6E71546BBE72B687D
:103E50002668181D6169286035061B6801D5196040
:103E600002E07006FBD51980002315462361BAE7EE
:103E70002B6800211A1D2A601D686268284600F020
:103E800072F808B1401B606063682361002384F806
:103E90004330A8E72A46494640462369D0470130C7
:103EA000ABD023689B0713D4E068039B9842B8BF4C
:103EB0001846A4E70123324649464046D047013020
:103EC0009BD00135E36803995B1AAB42F2DCEBE768
:103ED000002504F11906F5E72D4500083E450008C8
:103EE00010B50C46B1F90E10FCF740F90028ABBF35
:103EF000636DA3891B1823F48053ACBF6365A38152
:103F000010BD2DE9F0411F468B890546DB050C46A7
:103F1000164605D502230022B1F90E10FCF733F93D
:103F2000A389324623F48053A38128463B46B4F943
:103F30000E10BDE8F041FCF71DB910B50C46B1F903
:103F40000E10FCF720F9431CA38915BF606523F40C
:103F5000805343F48053A38118BFA38110BDB1F9EE
:103F60000E10FCF70BB9034610B5C9B202449342D8
:103F7000184601D1002003E0047801338C42F6D1C9
:103F800010BD00000148FFF779BB00BFFC15002001
:103F90000148FFF774BB00BFFC1500204E4D4920BF
:103FA00048414E444C4552004D454D204D414E41F7
:103FB00047452048414E444C455200425553204607
:103FC00041554C542048414E444C455200555341B4
:103FD0004745204641554C542048414E444C45529B
:103FE000004445425547204D4F4E2048414E444CD9
:103FF00045520044554D4D592048414E444C455280
:10400000000A49535220737461636B206F766572A6
:10401000666C6F77656400537461636B20706F69C1
:104020006E74657220636F727275707465642C2093
:10403000726573657420746F20746F70206F6620D2
:10404000737461636B000A436F6E746578742062E9
:1040500065666F726520686172646661756C743A3A
:104060000020202072303A2030782530386C780AD1
:1040700020202072313A2030782530386C780A20A0
:10408000202072323A2030782530386C780A20208F
:104090002072333A2030782530386C780A0020209E
:1040A0007231323A2030782530386C780A2020205E
:1040B0006C723A2030782530386C780A20202070D5
:1040C000633A2030782530386C780A20207073727B
:1040D0003A2030782530386C780A0A004653522F3F
:1040E0004641523A0020434653523A203078253018
:1040F000386C780A0020484653523A2030782530F0
:10410000386C780A0020444653523A2030782530E3
:10411000386C780A0020414653523A2030782530D6
:10412000386C780A0020424641523A2030782530D7
:10413000386C780A004D4D4641523A20307825308F
:10414000386C780A004D697363004558435F5245E7
:10415000543A2030782530386C780A004174746500
:104160006D7074696E6720746F207265636F6E7313
:10417000747275637420737461746520666F722045
:10418000646562756767696E672E2E2E00496E2022
:104190004744423A0A2020736574202470633D30FE
:1041A00078256C780A20206672616D6520300A20BF
:1041B0002062740A000A49535220737461636B20B1
:1041C0006F766572666C6F776564206279206174C2
:1041D000206C656173742025642062797465732E88
:1041E0000A0048415244204641554C542048414E13
:1041F000444C4552000000000038014000400000DF
:104200000A000240090002400401070701250000DE
:10421000004400400000020003000240020002408F
:1042200004010707002600000048004000000400C9
:104230000B0402400A0402400401070700270000A3
:1042400000380140004000000A000240090002401E
:10425000040107070125000000440040000002009F
:10426000030002400200024004010707002600008C
:1042700000480040000004000B0402400A04024011
:1042800004010707002700006D61696E28293A20A4
:10429000546869732069732052494F54212028566D
:1042A000657273696F6E3A20323031392E30312E9B
:1042B000554E574453290A0069646C65006D616965
:1042C0006E0025700A002A2A2A2052494F54206B7A
:1042D00065726E656C2070616E69633A0A25730AB7
:1042E0000A002A2A2A2068616C7465642E0A0A0072
:1042F0004641494C454420415353455254494F4E41
:104300002E0001010100000000000000000000007C
:104310000000000000030002000000000000000098
:10432000000000000405000000100140FFFF000035
:1043300010000000011B000000080140FFFF00000A
:1043400004000000011900004F5054333030312078
:1043500073756363657366756C6C7920696E6974D7
:1043600069616C69736564210D006C756D203D2079
:10437000256C75206C75780D0A004C756D696E6F33
:10438000D18169747900424D4532383020737563AC
:1043900063657366756C6C7920696E697469616CAC
:1043A00069736564210D0054203D2025692E25691F
:1043B00020432C2048203D2025692E2569202525D5
:1043C0002C2050203D202569206D6261720D0A006D
:1043D000556E61626C6520746F2072656164206344
:1043E000616C6962726174696F6E20646174610AE4
:1043F0000052656164696E672074696D6520657837
:1044000070697265640A00556E61626C6520746F34
:1044100020726561642074656D7065726174757277
:104420006520646174610A005B6F707433303031F1
:10443000206472697665725D204572726F723A20EF
:1044400073656E736F72206E6F7420666F756E6425
:10445000005B6F707433303031206472697665723E
:104460005D204572726F723A204944206D69736D08
:104470006174636800000000005400400100000007
:104480000804024009040240040400000000200067
:104490000048E8011F000000005800400100000033
:1044A0000A0402400B040240040400000000400023
:1044B0000048E80121000000380200200000000050
:1044C00000000000000000000000000000000000EC
:1044D00000000000000000000000000000000000DC
:1044E00000000000000000000000000000000000CC
:1044F00000000000000000000000000000000000BC
:1045000000000000000000000000000000000000AB
:10451000000000000000000000000000232D302BF0
:104520002000686C4C0065666745464700303132B4
:10453000333435363738394142434445460030310B
:10454000323334353637383961626364656600006A
:08455000F8E7FF7F0100000005
:104558000C1600207403002040000000000000003A
:104568000000000000000000B8420008BD4200083A
:1045780001010101010000007600000001010101B4
:10458800010000003802002000000000DC440008A0
:10459800FC440008BC4400080000000000000000C3
:1045A8000000000000000000000000000000000003
:1045B80000000000000000000000000000000000F3
:1045C80000000000000000000000000000000000E3
:1045D80000000000000000000000000000000000D3
:0C45E8000000000000000000282100007E
:040000050800045992
:00000001FF
