:020000040800F2
:100000000002002059040008F5030008B1030008AD
:10001000050400081504000825040008000000007D
:100020000000000000000000000000009503000830
:1000300035040008000000007903000845040008AA
:1000400025010008250100082501000825010008F8
:100050002501000825010008CD0C0008CD0C000882
:10006000CD0C0008CD0C0008CD0C000825010008BF
:1000700025010008250100082501000825010008C8
:1000800025010008250100082501000825010008B8
:10009000250100082501000825010008CD0C0008F5
:1000A0002501000863170008250100085D170008F6
:1000B0002501000825010008250100082501000888
:1000C0002501000825010008250100082501000878
:1000D00025010008150B00081B0B0008210B000868
:1000E000CD0C0008250100082501000825010008A5
:1000F0002501000800000000250100082501000876
:100100002501000825010008250100082501000837
:100110002501000825010008250100082501000827
:100120002501000800F08EB900F0A0BA7047000069
:1001300070B50C46064600F089FA094B094A1D685D
:100140002C44944202D8084A944207D20C234FF020
:10015000FF35336000F082FA284670BD1C60F9E775
:100160000002002000400120201600201946104601
:1001700000F088BA1946104600F08CBA13230360C9
:100180004FF0FF307047132303604FF0FF3070478C
:10019000132303604FF0FF307047002302290360F0
:1001A0008CBF002001207047134A10B5146800204E
:1001B00094FAA4F28442B2FA82F208BF4FF0FF32FE
:1001C0000E4C0F4B54F822200E49126818600B6831
:1001D000A2F108049C420ED023B118790A2804BF6A
:1001E0000B2018710A23012002F8043C32F9022C7A
:1001F000054B0C601A8010BD8C020020A00200206C
:10020000980200209402002090020020092930B5B5
:1002100003791AD9092B14D842791A4B00F1080432
:1002200053F822507DB12D68856053F822502C6020
:1002300043F822400123144A4479A340146823431D
:100240001360017130BD8460F2E7092BF9D945795B
:100250000C4C54F825303BB11A6893420BBF002375
:10026000126844F825301A60427954F82230002B85
:10027000E7D10123044C03FA02F2236823EA0203C4
:100280002360DEE7A00200208C02002008B5094BA5
:100290001B681A79092A02D95B79834205D900F0D3
:1002A000E0F918B10122044B1A6008BDBDE808400E
:1002B00000F05AB8940200209802002008B500F01F
:1002C000C5F90021084B094A1B88094C1BB242F8AA
:1002D0002310084A20681368013B1360FFF796FF5C
:1002E000216000F03DF800BF90020020E0020020F5
:1002F000940200209C02002013444FF0773223F038
:10030000030310B543F8042C5A0758BF4FF0883246
:10031000044658BF43F8082CA3F1040058BFA3F1CA
:1003200008004FF0807340E902430C4B002240F874
:100330000C3C0323022440E905320123024640E934
:1003400007340B2342F8201D42F8043D013B032BE8
:10035000FAD16FF0020340F8443D10BDBD02000821
:1003600000F078F901DFFEE7024A536843F080535A
:100370005360704700ED00E0EFF3098020E9F00FD3
:1003800040F804ED02490968086000F003F8000035
:1003900094020020FFF708FF04480068016801C9C3
:1003A000B1E8F00F81F309880047000094020020B3
:1003B0000D4B0E4A0E496846904203D8984201D927
:1003C000002102E009468D460121042072460242C6
:1003D00002D1EFF3088001E0EFF309802DE9F00F7F
:1003E0006B4600F06FF800BF58010020004001206C
:1003F00000020020042008B5014900F0D5FD00BF2F
:100400000C290008062008B5014900F0CDFD00BF09
:1004100018290008072008B5014900F0C5FD00BFF4
:100420002B290008082008B5014900F0BDFD00BFD8
:100430003D290008092008B5014900F0B5FD00BFBD
:10044000512900080A2008B5014900F0ADFD00BFA0
:10045000632900087047704708B5FFF7FBFF6A463D
:10046000114B1249934213D3114B124A12498B423A
:1004700011D30021114B124A934211D3FFF7EBFF26
:1004800000F048FD01F084FABDE8084000F05EBDD0
:1004900043F8041BE6E752F8040B43F8040BE6E7C5
:1004A00043F8041BE8E700BF00000020FEE7FEE77A
:1004B00000020020602E00088C0200208C02002028
:1004C000201600202DE9F04F8FB00A93494B924639
:1004D0009A6B044603925A6B9F6A0492DA6A8946C1
:1004E00005921A6BDB6B06920793434B1A68434BDA
:1004F0009A4202D0424801F0F5FAB9F1000F4FD00C
:100500000025404801F0EEFA2E463F4801F0EAFA95
:1005100039463E4801F060FA05993D4801F05CFA21
:1005200006993C4801F058FA07993B4801F054FA03
:100530003A0403D50399394801F04EFA3B0603D536
:100540000499374801F048FA364801F0CBFA514691
:10055000354801F041FAB9F1000F1CD1334801F0E0
:10056000C1FA3146324801F037FA6946314BC91AAF
:1005700003D53148494201F02FFA0A9E204682688D
:10058000C36801698C4641698E46AD46314691E8A3
:10059000F00F4168006801BE0520284900F004FD05
:1005A0002069D4E906680890606918F4007F099012
:1005B0002348D4E900B2D4E9023108BF04F1200590
:1005C000CDE90C3118BF04F124050B9201F08AFA31
:1005D000DDE90B230D991B480091594601F0FCF908
:1005E000DDE908123346CDF80080174801F0F4F930
:1005F0008BE700BF00ED00E000000020FEE7FEE713
:1006000071290008872900084C2A0008552A00088B
:10061000652A0008752A0008852A0008952A00081E
:10062000A52A0008B52A0008BA2A0008CC2A000822
:10063000FD2A000858010020252B0008522B000835
:10064000B6290008D12900080E2A0008EFF310800F
:1006500072B6704762B6EFF31080704780F310886F
:100660007047EFF30580C0B2704700004FF4E131EE
:100670000020024B024A00F0EBB900BF0402002048
:10068000AD1100080A460146014800F09ABD00BFBE
:100690000402002010B50C460A460146002000F076
:1006A0009FF9204610BD00007D4B01282DE9F74F32
:1006B000187006D0022820D04FF0FF3003B0BDE8FC
:1006C000F08F784B1A6842F00E021A601A6842F4F2
:1006D00000721A605A6842F4E0625A60724A136902
:1006E00043F004031361FFF7B1FFBFF34F8F30BF37
:1006F000FFF7B4FF00F074FEDEE76A4B6B4F1A6839
:10070000DFF8AC9122F002021A601A68DFF8A481C7
:1007100042F004021A601A68674E42F001021A6041
:100720001A68B24642F400721A605F4AC3461369FF
:10073000624C43F004031361FFF788FF4B46054604
:100740003A462046CDE9002300F0E4FCDDE9002331
:100750005B49002873D15B4C0023A246DFF868B1E7
:10076000DBF80000818911F400517AD0818900936F
:1007700021F400510904090C81810421DBF80C00EB
:1007800000F0D1F90122009B22700133032B0BF101
:10079000180B04F10104E3D14FF48051012000F063
:1007A00085FD01280FD1494B1B889A075BD408218E
:1007B000474800F0B8F90821464800F0B4F9032191
:1007C000454800F0B0F94FF48041002000F06EFD84
:1007D00001280FD1414B1B889B0746D40821404874
:1007E00000F0A1F908213F4800F09DF903213E489F
:1007F00000F099F9BFF34F8F30BF00F0F1FD2F4C9F
:10080000DFF8BCB0204600F085FC80BB9AF80030D1
:100810002BB1364A93899BB243F4005393819AF8E3
:1008200001302BB1324A93899BB243F40053938138
:100830009AF8023063BB2846FFF710FF3CE72068B8
:1008400042F8040BE06843F8040BA0882BF8020B75
:10085000208D04F580648C422AF8020B7FF471AF7E
:1008600079E7217091E70421A2E70421B7E759F85D
:10087000043BE36038F8023BA38057F8043B236055
:1008800036F8023B238504F580645C45BAD1BDE7A8
:10089000184A93899BB243F400539381CBE700BF7E
:1008A000070400200070004000ED00E0B4030020C9
:1008B000E4030020D4030020A40300200000024031
:1008C0000020024004040020682B00080030014092
:1008D00005000240070002400600024000380040C8
:1008E0000D0402400F0402400E0402400038014093
:1008F000004400400048004008B5FFF7A7FE002272
:10090000014B1A7008BD00BF0704002018234343A1
:100910000D4A70B5D45823889A069DB209D50C2388
:1009200058430A4AA18813181E7A12583140586851
:1009300090472B0748BFA388054B1B681BB1BDE838
:100940007040FFF711BD70BDB02B000808040020F7
:10095000980200202DE9F041182444431F4E0D4613
:1009600006EB040898F81470384600F05DFCB0FB04
:10097000F5F0072808D83846D8F8041000F07CFCB9
:100980006FF00100BDE8F08133590F289A8922F4F5
:1009900000524FEA02424FEA12429A819989C2B24A
:1009A00011D86FEA41416FEA5141083A89B242F0E9
:1009B00010029981D2B21A819A89002092B242F42F
:1009C00000529A81DEE7C1F30E0199814FF6F07172
:1009D00002F00F0201400A43EDE700BFB02B000810
:1009E000022810B503D903200C4900F0DDFA1823C2
:1009F00058430B4B1B589889000705D50A44914270
:100A000003D11A885206FCD510BD11F8010B1C88C1
:100A10002406FCD580B29880F1E700BF602C000866
:100A2000B02B0008022808B503D90320064900F0BE
:100A3000BBFA1822054B02FB0030BDE808404168B4
:100A4000007D00F001BC00BF602C0008B02B000846
:100A500002282DE9F84304460F46164603D9032021
:100A6000284900F0A1FA0C22182562432648DFF835
:100A70009C8081184B60FF2305FB0485D5F80C9002
:100A800086500B724846697C00F04DF8484600F0ED
:100A9000B2F84846E97C00F083F84EB1D5F80890EA
:100AA000297C484600F03FF84846A97C00F078F8D9
:100AB0002046FFF7B7FF1823634358F8035008EBAD
:100AC000030900233946AB8120462B82AB82FFF716
:100AD00041FF9EB199F9153099F81520002B07DBDD
:100AE00002F01F0101228A4009495B0941F82320D5
:100AF00042F22C030020AB81BDE8F88342F20803E8
:100B0000F8E700BF602C000808040020B02B0008A4
:100B100000E100E00020FFF7F9BE0120FFF7F6BE7C
:100B20000220FFF7F3BEF8B5431C0C4637D0012670
:100B300020F00F0500F00F07C0F3832006FA00F144
:100B4000022000F081FBFFF781FD03232A6807FAEA
:100B500006FC03FA0CF304F0030122EA030201FA93
:100B60000CF111432960E968C4F3810221EA030111
:100B700002FA0CF20A43EA60AA88BE4092B2C4F3B9
:100B8000001422EA0602BC401443A4B2AC80AA6856
:100B9000B6B21343AB602E85FFF760FD0020F8BDB1
:100BA000F8B5431C04460D4624D020F00F0600F093
:100BB0000F07FFF74BFD0323326879008B4022EAD1
:100BC000030202238B401343072F33608CBF04239F
:100BD00000231E440F2304F00704316AA400A3403D
:100BE00021EA030105FA04F40C433462BDE8F8403D
:100BF000FFF734BDF8BD431C07D0012320F00F02DE
:100C000000F00F0003FA00F0906170472DE9F04109
:100C10008846012105461646294A00F00F0442F88D
:100C20003430069B02EBC4025360C0F383270846AE
:100C300000F00AFB41462846FFF775FF042C214BC4
:100C400034DC0122A11D8A401A6001221E4BA24001
:100C5000996805F0030521EA02019960986806F099
:100C60000101A14001430F209960D968760821EA6B
:100C70000201D960D968A64004F00C040E4304F1C7
:100C80008044DE6004F58034A168AD00A84021EA0C
:100C90000001A160A16807FA05F50D43A5605A613E
:100CA000196800200A431A60BDE8F081092C02DCB3
:100CB0004FF40002C8E74FF480725A60C5E700BFE6
:100CC0002C04002000E100E0000401402DE9F04187
:100CD00000244FF001080D4F0D4D7E693B681E400A
:100CE00008FA04F3334203D07B61D5E9003098471A
:100CF0000134102C05F10805F2D1064B1B681BB11D
:100D0000BDE8F041FFF730BBBDE8F08100040140D1
:100D10002C04002098020020002000F0C7BC000036
:100D200038B5044C2568FFF7F7FF2368AB42F9D1CB
:100D3000184338BDB4040020034B196819B982B2B6
:100D4000084600F08FBC7047AC0400202DE9F0434A
:100D5000294E336803F58033336033681BB9274A63
:100D60001368013313600020254B264D1A68186064
:100D70002B6884461946244FDFF880E0DFF88C802A
:100D80003A6029B1DEF80040D1F80890A14517D9A2
:100D900000B12960BCF1000F10D00021CCF8001088
:100DA0003AB3C3B1546859688C4294BF1046184690
:100DB000014612681B6882B90B603860BDE8F08399
:100DC0004C68D6F8009004EA08044C45E0D18C4603
:100DD00001200968D5E71046EAE70BB90A60ECE79D
:100DE00056685D68AE4294BF14461C460C602146AE
:100DF000DFE73B60E2E700BFB4040020B00400205E
:100E0000BC040020B8040020C00400200000FFFF44
:100E10002DE9F041002965D10123334F334D3B606B
:100E20002B68CBB9FFF792FF4FF6FF74FFF774FF03
:100E3000A042FBD000244FF000082B6883B9FFF7D5
:100E40006BFF1430844228D9FFF780FFFFF764FF5F
:100E50008442FBD30024F0E7FFF75EFF0446EAE795
:100E60005E68FFF759FF844205D8B3B2834202D9C6
:100E70001B1A132BE3D82B685E68FFF74DFF8442E3
:100E800002D8B6B28642F6D82B681A68C3E9018840
:100E90002A60D3E903209047CFE72B686BB15E68E7
:100EA000FFF73EFF063E14308642C6D3002330468D
:100EB0003B60BDE8F041FFF73FBFFFF72DFF8442E5
:100EC000064602D9FFF742FFC4E700F114039BB2C4
:100ED000984204D9FFF720FF8642FBD9F2E74FF68C
:100EE000FF76E3E7BDE8F081AC040020C0040020F9
:100EF00008B50023054A1846054900F0EBFBBDE89C
:100F000008404FF0FF30FFF717BF00BF110E000879
:100F100040420F0008B500F0E1F9BDE808400121AA
:100F20000148FFF700BE00BF0004024008B500F012
:100F3000D7FC034800F050FD00F098FC002008BDED
:100F4000F82B000808B500F04FF9FCE71FB50024A6
:100F5000FFF77CFB0D4B0F221B684FF4807102934F
:100F60000B4B0C48009301940C2300F057F80A4BEC
:100F700007221B684FF44061CDE90143074B084845
:100F800000930C2300F04AF8FFF7EAF9180200205A
:100F9000450F0008C40400201C0200202D0F00088B
:100FA000C40500207047000008B50C4B0C461A68B9
:100FB00072B9012203281A6003D17146084800F073
:100FC0000BFD2146074800F007FD074800F004FD2F
:100FD000FFF73CFBFFF7E6FFFFF78EFCC411002094
:100FE000322C0008362C0008522C000838B50B793A
:100FF000092B03D903200849FFF7D6FF4C7901F1EB
:1010000008020346006818B110F8035CA542F8D93D
:1010100088601A6038BD00BF602C00080F2A2DE9D7
:10102000F74F05468A469046994637D810F0030395
:101030000FBF0B46C3F10402043B5B18A3F130035E
:1010400018BFAD1823F0030319F0080F05EB0304D4
:101050001AD12D6003E012600432A242FBD3019347
:10106000FFF7F4FA012207462849019B51F8226054
:101070000FFA82FBAEB10132212AF7D13846FFF7D1
:10108000EDFA6FF08A0B3CE02A46E6E701212046A4
:10109000FFF7BCF83846FFF7E1FA32E06FF0150BC6
:1010A0002FE041F822402A46DDE90C01A4F806B001
:1010B000FFF722F90E9B164AA3624FF0FF33C4E9F3
:1010C0000736136819F0010F03F101032060C4E92A
:1010D0000266C4E904666562C4F82CA084F8058041
:1010E0002671A6611360D1D10B212046FFF78EF83F
:1010F00019F0040FCED13846FFF7B0FA4046FFF79B
:10110000C5F8584603B0BDE8F08F00BFE0020020EC
:101110009C0200200C4B9A6A42F400429A62EFF360
:10112000138171B65A6942F480725A610278986AE2
:101130005A6922F480725A6181F3138880F4004066
:10114000C0F3C030704700BF00ED00E0F8B50546C1
:101150000F46164604463C442046FFF7DBFF631B60
:1011600008B19E42F7D81846F8BD00000C4B0D4A56
:10117000102110B59A6000220B4C83F82210D97709
:10118000A0180132392A80F80013F9D11A6942F007
:1011900010021A615A6942F400725A6110BD00BF10
:1011A00000ED00E00000000800E100E038B5054671
:1011B00000F0F6FA044605F1100000F0C3FB2046EB
:1011C00038BDF8B504460D46164600F11007324604
:1011D0002946204600F0D1FA00B1F8BD0121384679
:1011E00000F080FBF3E7000073B50E4E3368019307
:1011F00004230DEB03021D46013B995C11B9002B42
:10120000F9D11D46FFF722FA3368019A04469A4243
:1012100002D168B2FFF748FA204602B0BDE870403C
:10122000FFF71CBA20020020014B186A704700BF6C
:10123000C8110020024A034B1B5C106A58437047D8
:10124000C8110020722C0008012809D002280CD0F7
:1012500018B9084A536A19435162BFF34F8F704758
:10126000044A136A19431162F7E7024AD369194322
:10127000D161F2E700380240012808D002280CD0E2
:1012800080B9094A536A23EA010151627047064A4C
:10129000136A23EA010111627047034AD36923EA02
:1012A0000101D161704700BF00380240012809D018
:1012B00002280AD060B9084B5B6A0B4214BF0120B8
:1012C00000207047044B1B6AF7E7034BDB69F4E728
:1012D0004FF0FF30704700BF003802402DE9F04763
:1012E000FFF744FF4FF080510020FFF7ADFF00F003
:1012F00077F81A4BFF210220DE690025FFF7A4FFD3
:101300006FF0A8474FF0FF386FF4A079F6B2AC0247
:1013100004F1804404F5003420465FFA85FAFFF7B3
:10132000F9FE50B12DB1BAF1010F14D0C4F800800C
:1013300000E027600135082DE9D1084B0220D9696A
:1013400021F0FF013143FFF77FFF00F03CFABDE8D9
:10135000F04700F005B8C4F80090EBE70038024011
:1013600038B54FF4A0324FF480614FF00050FFF7D2
:10137000EDFE0425144C4FF400224FF480612060F0
:101380004FF000602571FFF7E1FE4FF48073A0601D
:10139000000A4FF48042E0604FF400610B48236183
:1013A0002575FFF7D3FE0A4B25771B68A061C3F3B1
:1013B0000B03A3F21643212B8EBF0023054AD35CF7
:1013C00084F8243038BD00BFC81100200000080890
:1013D000002004E0742C00080138FDD170470000A3
:1013E000774B37B51A68774D42F480721A609A6865
:1013F00022F47F5222F030029A609A6822F0EE4284
:101400009A609A6822F003029A6019686E4A0A404C
:1014100000211A60D9602A68022A00F0AF80B2F574
:10142000003F1A6842F480321A6040F0AC80644990
:101430000A682B681A42FBD0644B1A6842F0040217
:101440001A601A6842F001021A601A6842F0020239
:101450001A609A691207FCD54FF080510020FFF7FF
:10146000F3FE5B4B1A680092009A22F4C05200927D
:10147000009A42F400620092009A1A605A68D406F8
:10148000FCD44F4C062063680093009B23F4604318
:101490000093009B43F440430093009B6360FFF77D
:1014A0009BFF236843F001032360A36823F47D03BB
:1014B000A360A36843F40003A360236843F0807330
:1014C000236023689801FCD51A20FFF785FF236865
:1014D00023F0807323603A4B1A689101FCD49A6818
:1014E00022F47D029A602A68B2F5003F9A680CBF28
:1014F00042F4050242F408029A60314B1A6842F045
:1015000080721A601A689201FCD540F201129B6841
:1015100030490093009B23F0030300932B68B3F53D
:10152000003F08BF1146009B43F003030093009A5D
:10153000234B9A609A6802F00C020C2AFAD11A68BE
:1015400022EA01021A602449244A11629A68009230
:10155000009A22F0F0020092009A0092009A22F47F
:10156000E0620092009A0092009A22F46052009287
:10157000009A0092009A9A6003B030BD1A6842F057
:1015800001021A6053E74FF4003242F210702A60F1
:10159000019119682A6811427FF449AF019A01321A
:1015A0000192019A8242F4DD1A6842F001021A6047
:1015B0001A6822F480321A6002232B6037E700BFDA
:1015C00000380240F0110020FEFFFAEE003C02401D
:1015D00000700040000101000048E801C81100202F
:1015E0002DE9F843074600241B4A0301D658DFF8CB
:1015F0006C90338AB58909EBC008ADB21D40022357
:1016000003FA04F22A420AD0B38921469BB223EAA4
:101610000203B381D8F8040059F837309847012302
:10162000A3402B420BD0338A214623F001031B0435
:101630001B0C3382D8F8040059F83730984701342E
:10164000042CDCD1064B1B681BB1BDE8F843FEF748
:101650008BBEBDE8F88300BF982C0008F411002071
:1016600098020020032910B51ADC0F4B040103EB8C
:1016700000101C59436800201A4001F10C0304EBD0
:1016800083035A60238A9AB2022303FA01F109B252
:1016900022EA01032382A389194389B2A18110BDE3
:1016A0004FF0FF30FBE700BF982C0008024B000111
:1016B0001B58586A704700BF982C0008044B000163
:1016C0001A5813889BB243F001031380704700BF80
:1016D000982C000801282DE9F84304460F4633D81A
:1016E0001B4D1C4E45F8302005EBC0056B6006EB2A
:1016F000001595F80C80A9684FEA00194046FFF7DD
:10170000A3FD002356F8096040463380B3806B6820
:10171000F362FFF78FFDB0FBF7F0012295F90D3072
:10172000013880B2002B3085697BB28206DB01F084
:101730001F018A4008495B0941F823202046FFF732
:10174000BDFF0020BDE8F8834FF0FF30FAE700BF8F
:10175000F4110020982C000800E100E00020FFF7C1
:101760003FBF0120FFF73CBF82680168531C8360C4
:101770004368013B1340C85C7047F8B504460F4608
:10178000164615461DB1A268E3689A4201D1701B46
:10179000F8BD2046FFF7E8FF013D07F8010BF1E730
:1017A000C26830B584684368121B9A4208D0C26888
:1017B0000468551CC5600020013B1340E15430BD56
:1017C0004FF0FF30FBE7704707B50849084800F0C5
:1017D00003F90849084800F0FFF801A9074800F09C
:1017E000FBF8002003B05DF804FB00BFBC2D00082F
:1017F000B82C000804120020E62C00080E2D00086A
:1018000038B5054C00202568FFF750FF2368AB4230
:10181000F8D1184338BD00BFB404002013B5FFF75A
:10182000EFFF0B4C2368C01A0A4B98420ED90A49A5
:101830000A4800F0D1F80A490A4800F0CDF801A999
:10184000094800F0C9F8FFF7DBFF206002B010BDC7
:1018500008120020A0860100C42D0008352D0008C4
:1018600010160020622D0008892D000810B50024F4
:1018700086B00322104B042100941048FFF7C6F9EC
:101880000F49104800F0A8F80F49104800F0A4F8DC
:1018900005A90F4800F0A0F80E4B0622CDE9014340
:1018A0000D4B4FF4806100930C480823FFF7B6FB03
:1018B000204606B010BD00BF1D18000801040240FC
:1018C000C02D0008BE2C00080C120020EC2C0008D3
:1018D000142D0008AF2D0008C917000810120020B1
:1018E000FFF706BB70B504460D46FEF7AFFE236852
:1018F00006463BB94FF0FF332360FEF7AFFE0125EC
:10190000284670BDC5B10E4B02211D682846FEF762
:101910007DFC236801330AD105F10803236000230D
:10192000AB603046FEF79AFEFEF71EFDE7E729465C
:101930002046FFF75BFBF4E7FEF790FEE0E700BF11
:101940009402002070B50446FEF780FE2568064626
:101950001DB9BDE87040FEF781BE6B1C02D10023AB
:101960002360F6E7284650F808390B212360FEF77C
:101970004DFC236813B94FF0FF33236015F8034C77
:101980003046FEF76BFE2046BDE87040FEF77EBC99
:1019900070B500260C4D0D4C641BA410A64209D155
:1019A000FEF7C2FB00260A4D0A4C641BA410A64297
:1019B00005D170BD55F8043B98470136EEE755F860
:1019C000043B98470136F2E7602E0008602E0008BD
:1019D000602E0008602E00080FB40A4B13B51C6877
:1019E00024B1A36913B9204600F05AFA05AB20468A
:1019F000049AA168019300F065FC02B0BDE81040B4
:101A000004B070472402002070B50E46054618B198
:101A100083690BB900F044FAAB69AC6813B9284686
:101A200000F03EFA2C4B9C4220D16C68636EDB07C1
:101A300005D4A389980502D4A06D00F0CFFAA3893C
:101A400019071DD52369DBB1013EA36816F8011FF4
:101A5000013BA36039BB002B38DA22460A21284615
:101A600000F048F8013011D00A2511E01B4B9C42D0
:101A700001D1AC68DAE71A4B9C4208BFEC68D5E7A5
:101A80002146284600F088F80028DDD04FF0FF35C9
:101A9000636EDA0705D4A3899B0502D4A06D00F01C
:101AA0009EFA284670BD002B04DAA2699A4206DC31
:101AB0000A2904D023685A1C22601970C5E72246FF
:101AC000284600F017F80130BFD1DFE70A25236868
:101AD0005A1C22601D70DBE7EC2D00080C2E00085C
:101AE000CC2D0008024B01461868FFF78DBF00BFE0
:101AF00024020020F8B50E461446054618B1836945
:101B00000BB900F0CDF9214B9C422BD16C68A36935
:101B1000A360A3891A072FD523696BB323692068B3
:101B2000F6B2C01A63693746834204DC2146284670
:101B300000F022F930BBA3680130013BA3602368A9
:101B40005A1C22601E706369834204D0A389DB079C
:101B500006D50A2E04D12146284600F00DF988B991
:101B60003846F8BD0A4B9C4201D1AC68CFE7094B1F
:101B70009C4208BFEC68CAE72146284600F00CF8F2
:101B80000028CBD04FF0FF37EAE700BFEC2D00086C
:101B90000C2E0008CC2D0008324B70B51D6806468F
:101BA0000C4625B1AB6913B9284600F079F92E4BE4
:101BB0009C420FD16C68A389B4F90C2019072CD46E
:101BC000DD0611D40923336042F040034FF0FF30AB
:101BD000A3813EE0254B9C4201D1AC68EBE7244B4E
:101BE0009C4208BFEC68E6E7580712D5616B41B12B
:101BF00004F14403994202D0304600F05FFA00231A
:101C00006363A38923F02403A38100236360236912
:101C10002360A38943F00803A38123694BB9A389F7
:101C200003F42073B3F5007F03D02146304600F063
:101C3000FDF9A089B4F90C2010F001030AD00023AB
:101C4000A36063695B42A361236943B910F080001C
:101C5000BAD170BD810758BF6369A360F4E7002063
:101C6000F7E700BF24020020EC2D00080C2E00082E
:101C7000CC2D00088A89F8B5054610070C4657D4C4
:101C80004B68002B04DC0B6C002B01DC0020F8BD42
:101C9000E66A002EFAD0002312F480522F682B60DF
:101CA00032D0606DA3895A0705D56368C01A636B8B
:101CB0000BB1236CC01A00230246E66A2846216A4B
:101CC000B047431CA38906D129681D292CD8294A6D
:101CD000CA40D60728D5002262602269D904226052
:101CE00004D5421C01D12B6803B96065616B2F607C
:101CF0000029CBD004F14403994202D0284600F0D9
:101D0000DDF900206063C2E7216A01232846B0475D
:101D1000411CC7D12B68002BC4D01D2B01D0162B22
:101D200001D12F60B2E7A38943F04003A381AEE75E
:101D30000F69002FAAD0930718BF00230E6808BFB1
:101D40004B69F61B0F608B60002E9FDD33463A46D1
:101D50002846216AD4F828C0E047002806DCA38979
:101D60004FF0FF3043F04003A38190E70744361A59
:101D7000EAE700BF0100402038B50B6905460C4674
:101D800013B90025284638BD18B183690BB900F096
:101D900087F8144B9C421BD16C68B4F90C30002BB3
:101DA000EFD0626ED00704D4990502D4A06D00F084
:101DB00015F928462146FFF75DFF636E0546DA07F1
:101DC000E0D4A3899B05DDD4A06D00F008F9D9E724
:101DD000054B9C4201D1AC68DFE7044B9C4208BF35
:101DE000EC68DAE7EC2D00080C2E0008CC2D00087A
:101DF000002310B50446C0E90033C0E90433836012
:101E000081814366C2818361194608225C3000F0FB
:101E10004DF9054B24626362044BA362044BE362F9
:101E2000044B236310BD00BF51280008732800082D
:101E3000AB280008CF280008014900F0AFB800BF68
:101E4000791D0008682270B54D1E55430E4605F1F8
:101E5000740100F09BF9044640B10021C0E900166E
:101E60000C30A06005F1680200F020F9204670BD3A
:101E7000014800F0B3B800BF15160020014800F07B
:101E8000AEB800BF15160020014800F0A7B800BF8B
:101E900016160020014800F0A2B800BF1616002058
:101EA00010B50446FFF7F0FFA3691BB1BDE8104071
:101EB000FFF7F0BFC4E912332365134B134A1B68C5
:101EC000A262A34208BF0123204608BFA36100F01D
:101ED0001FF86060204600F01BF8A060204600F06C
:101EE00017F800220421E0606068FFF781FF0122FB
:101EF0000921A068FFF77CFF02221221E068FFF7AA
:101F000077FF0123A361D1E7C82D0008391E00081F
:101F1000F8B50746FFF7ACFF1E4B1E68B36913B94F
:101F20003046FFF7BDFF4836D6E90134013B03D503
:101F300033680BB33668F7E7B4F90C50D5B9164BD4
:101F400004F15800E360656600F047F8FFF796FF7C
:101F500008222946C4E90155C4E904552560A56154
:101F600004F15C0000F0A2F8C4E90D55C4E9125573
:101F70002046F8BD6834D9E704213846FFF762FFF0
:101F8000044630600028D5D1FFF778FF0C233B6072
:101F9000EEE700BFC82D00080100FFFF2DE9F84360
:101FA00006468846002700F14804D4E90195B9F1B6
:101FB000010905D52468002CF7D13846BDE8F8831F
:101FC000AB89012B07D9B5F90E30013303D029466F
:101FD0003046C04707436835E9E7704770477047A8
:101FE00070B50E46B1F90E10144600291D4696B084
:101FF00008DA0022B6F90C302A601A0610D44FF421
:1020000080630EE06A46FEF7C3F80028F1DB019A10
:1020100002F47042A2F500535A425A412A60EEE798
:1020200040230020236016B070BD00008B8973B57B
:102030009D0706460C4607D504F14703236023613C
:102040000123636102B070BD6A4601ABFFF7C8FFB0
:1020500000990546304600F099F848B9B4F90C30BB
:102060009A05EFD423F0030343F00203A381E3E7CF
:102070000D4BB362A389206043F08003A381009BD2
:1020800020616361019B5BB13046B4F90E10FEF72D
:1020900084F828B1A38923F0030343F00103A3814B
:1020A000A0890543A581CDE7391E000803460244F7
:1020B000934200D1704703F8011BF9E738B5054694
:1020C000002940D051F8043C0C1F002BB8BFE41885
:1020D00000F010FC1C4A136833B963601460284692
:1020E000BDE8384000F00CBCA34208D92068211894
:1020F0008B4201BF19685B6809182160EDE71A4639
:102100005B680BB1A342FAD911685018A0420BD1F9
:1021100020680144501883421160E0D118685B6860
:10212000014411605360DAE702D90C232B60D6E733
:10213000206821188B4201BF19685B68091821606B
:1021400063605460CBE738BD1816002070B50E4EA2
:102150000C463168054611B9FDF7EAFF30602146AB
:102160002846FDF7E5FF431C0AD0C41C24F00304F5
:10217000A04207D0211A2846FDF7DAFF013001D12D
:102180004FF0FF34204670BD1C1600202DE9F041B1
:10219000CD1C25F0030508350C2D38BF0C25002D6E
:1021A000074601DBA94205D90C2300263B603046D7
:1021B000BDE8F0812E4E00F09DFB33681C4634BB19
:1021C00029463846FFF7C2FF431C04464DD1346808
:1021D0002646002E40D123683146384604EB0308DA
:1021E000FDF7A6FF80453AD1216803356D1A25F029
:1021F000030508350C2D38BF0C2538462946FFF756
:10220000A5FF01302BD023682B4423600EE0226809
:10221000521B1ED40B2A16D96119A342256018BF80
:102220005960636808BF316062514B60384604F101
:102230000B0600F065FB26F00706231DF21AB6D048
:102240009B1BA350B3E76268A3420CBF32605A6085
:10225000ECE723466468B2E734467668B9E70C23B6
:1022600038463B6000F04CFBA1E72560DEE700BF8D
:1022700018160020936810B4013B002B936007DA16
:102280009469A34201DB0A2902D110BCFFF732BCDA
:102290001368581C10601970084610BC7047F8B5D8
:1022A00006460F461446D518AC4201D1002007E07F
:1022B0003A46304614F8011BFFF7DCFF431CF3D10C
:1022C000F8BD00002DE9F04F0D461446984606462D
:1022D0009DB018B183690BB9FFF7E2FD894B9D42B0
:1022E0001BD175686B6ED90705D4AB899A0502D4EA
:1022F000A86DFFF773FEAB891B0701D52B69EBB9FE
:1023000029463046FFF748FCC0B16B6EDC070ED59E
:102310004FF0FF301DB0BDE8F08F7B4B9D4201D1E7
:10232000B568DFE7794B9D4208BFF568DAE7AB890E
:102330009805EDD4A86DFFF752FEE9E70023099355
:1023400020238DF8293030234FF00109CDF80C807F
:10235000DFF8BC818DF82A3023469A4613F8012B0A
:102360000AB1252AF9D1BAEB040B0BD05B46224601
:1023700029463046FFF793FF013000F0AA80099A02
:102380005A4409929AF80030002B00F0A2800023F2
:102390004FF0FF32CDE905230AF1010A04930793B8
:1023A0008DF853301A935446052214F8011B5848EF
:1023B00000F091FA049AD8B9D10644BF20238DF8D1
:1023C0005330130744BF2B238DF853309AF8003055
:1023D0002A2B15D0544600204FF00A0C079A2146AC
:1023E00011F8013B303B092B4ED9B0B1079214E0F4
:1023F000A0EB080309FA03F31343A2460493D2E7C0
:10240000039B191D1B680391002BBBBF5B4242F06D
:10241000020207930793B8BF049223782E2B0CD1A6
:1024200063782A2B35D1039B02341A1D1B68039253
:10243000002BB8BF4FF0FF330593DFF8D8A003227D
:102440005046217800F047FA40B14023A0EB0A0043
:1024500003FA00F0049B01340343049314F8011BB6
:1024600006222D488DF8281000F035FA00283FD0BC
:102470002A4B1BBB039B073323F00703083303934B
:10248000099B3B44099367E70C4601200CFB023291
:10249000A5E700234FF00A0C1946013405932046A6
:1024A00010F8012B303A092A03D9002BC5D0059129
:1024B000C3E7044601230CFB0121F0E703AB0093C3
:1024C0002A463046164B04A9AFF300800746781C15
:1024D000D6D16B6ED90705D4AB899A0502D4A86D05
:1024E000FFF77DFDAB895B063FF512AF099811E759
:1024F00003AB00932A463046094B04A900F082F84A
:10250000E4E700BFEC2D00080C2E0008CC2D0008DD
:102510002C2E0008322E0008362E00080000000085
:102520009F2200082DE9F047164699468A680B69F4
:1025300007469342B8BF1346336091F843200C46D8
:10254000DDF820800AB1013333602368990642BF69
:10255000336802333360256815F0060506D104F1AF
:10256000190AE36832689B1AAB4228DC94F84320CE
:10257000131E226818BF012392062DD449463846FF
:1025800004F14302C047013020D02368E56803F01E
:102590000603042B18BF002532684FF00006A3681D
:1025A00008BFAD1A226908BF25EAE5759342C4BF8A
:1025B0009B1AED181A34B5421AD1002008E0012305
:1025C000524649463846C047013003D14FF0FF30EC
:1025D000BDE8F0870135C4E73020E11881F84300F9
:1025E0005A1C94F845102244023382F84310C5E780
:1025F0000123224649463846C0470130E6D001361D
:10260000D9E700002DE9FF470F7E9146782F8046DD
:102610000C469A460C9D01F1430207D8622F0AD856
:10262000002F00F0D980582F00F0A48004F142055B
:1026300084F842703AE0A7F16303152BF6D801A1A4
:1026400051F823F09D260008B12600082D26000829
:102650002D2600082D2600082D260008B12600088A
:102660002D2600082D2600082D2600082D260008FE
:10267000BF270008E1260008A12700082D26000832
:102680002D260008E12700082D260008E126000875
:102690002D2600082D260008A92700082B681A1DE2
:1026A0001B682A6004F1420584F842300123A4E04B
:1026B00020682968060601F104030AD50E682B601C
:1026C000002E03DA2D23764284F843300A235E4835
:1026D00019E00E6810F0400F2B6018BF36B2EFE71C
:1026E0002B682068191D2960010601D51E6802E0CB
:1026F0004606FBD51E886F2F0CBF08230A235248BD
:10270000002184F843106568002DA8BF2168A560EA
:10271000A4BF21F0040121600EB9002D4DD0154653
:10272000B6FBF3F103FB1167C75D05F8017D374682
:10273000BB420E46F4D9082B0BD12368DE0708D51F
:10274000236961689942DEBF302305F8013C05F139
:10275000FF35521B22614B4621464046CDF800A072
:1027600003AAFFF7DFFE01304CD14FF0FF3004B079
:10277000BDE8F087344881F845702968236851F82E
:10278000046B29601D0614D5DF0744BF43F0200306
:1027900023601EB9236823F0200323601023AFE7D2
:1027A000236843F0200323607823284884F84530C9
:1027B000E3E7590648BFB6B2E6E71546BBE72B6824
:1027C0002668181D6169286035061B6801D51960E7
:1027D00002E07006FBD51980002315462361BAE795
:1027E0002B6800211A1D2A601D686268284600F0C7
:1027F00072F808B1401B606063682361002384F8AD
:102800004330A8E72A46494640462369D04701306D
:10281000ABD023689B0713D4E068039B9842B8BFF2
:102820001846A4E70123324649464046D0470130C6
:102830009BD00135E36803995B1AAB42F2DCEBE70E
:10284000002504F11906F5E73D2E00084E2E00087C
:1028500010B50C46B1F90E10FDF788FC0028ABBF8F
:10286000636DA3891B1823F48053ACBF6365A381F8
:1028700010BD2DE9F0411F468B890546DB050C464E
:10288000164605D502230022B1F90E10FDF77BFC98
:10289000A389324623F48053A38128463B46B4F9EA
:1028A0000E10BDE8F041FDF765BC10B50C46B1F95E
:1028B0000E10FDF768FC431CA38915BF606523F467
:1028C000805343F48053A38118BFA38110BDB1F995
:1028D0000E10FDF753BC034610B5C9B20244934233
:1028E000184601D1002003E0047801338C42F6D170
:1028F00010BD00000148FFF771BB00BF1416002097
:102900000148FFF76CBB00BF141600204E4D492054
:1029100048414E444C4552004D454D204D414E419D
:1029200047452048414E444C4552004255532046AD
:1029300041554C542048414E444C4552005553415A
:102940004745204641554C542048414E444C455241
:10295000004445425547204D4F4E2048414E444C7F
:1029600045520044554D4D592048414E444C455226
:10297000000A49535220737461636B206F7665724D
:10298000666C6F77656400537461636B20706F6968
:102990006E74657220636F727275707465642C203A
:1029A000726573657420746F20746F70206F662079
:1029B000737461636B000A436F6E74657874206290
:1029C00065666F726520686172646661756C743AE1
:1029D0000020202072303A2030782530386C780A78
:1029E00020202072313A2030782530386C780A2047
:1029F000202072323A2030782530386C780A202036
:102A00002072333A2030782530386C780A00202044
:102A10007231323A2030782530386C780A20202004
:102A20006C723A2030782530386C780A202020707B
:102A3000633A2030782530386C780A202070737221
:102A40003A2030782530386C780A0A004653522FE5
:102A50004641523A0020434653523A2030782530BE
:102A6000386C780A0020484653523A203078253096
:102A7000386C780A0020444653523A20307825308A
:102A8000386C780A0020414653523A20307825307D
:102A9000386C780A0020424641523A20307825307E
:102AA000386C780A004D4D4641523A203078253036
:102AB000386C780A004D697363004558435F52458E
:102AC000543A2030782530386C780A0041747465A7
:102AD0006D7074696E6720746F207265636F6E73BA
:102AE000747275637420737461746520666F7220EC
:102AF000646562756767696E672E2E2E00496E20C9
:102B00004744423A0A2020736574202470633D30A4
:102B100078256C780A20206672616D6520300A2065
:102B20002062740A000A49535220737461636B2057
:102B30006F766572666C6F77656420627920617468
:102B4000206C656173742025642062797465732E2E
:102B50000A0048415244204641554C542048414EB9
:102B6000444C455200000000003801400040000085
:102B70000A00024009000240040107070125000085
:102B80000044004000000200030002400200024036
:102B90000401070700260000004800400000040070
:102BA0000B0402400A04024004010707002700004A
:102BB00000380140004000000A00024009000240C5
:102BC0000401070701250000004400400000020046
:102BD0000300024002000240040107070026000033
:102BE00000480040000004000B0402400A040240B8
:102BF00004010707002700006D61696E28293A204B
:102C0000546869732069732052494F542120285613
:102C1000657273696F6E3A20323031392E30312E41
:102C2000554E574453290A0069646C65006D61690B
:102C30006E0025700A002A2A2A2052494F54206B20
:102C400065726E656C2070616E69633A0A25730A5D
:102C50000A002A2A2A2068616C7465642E0A0A0018
:102C60004641494C454420415353455254494F4EE7
:102C70002E00010101000000000000000000000023
:102C8000000000000003000200000000000000003F
:102C9000000000000405000000100140FFFF0000DC
:102CA00010000000011B000000080140FFFF0000B1
:102CB000040000000119000054687265642E53740A
:102CC0006174696320636F6E7374206C6F63616CF1
:102CD00020746F206D61696E2829206973206174EA
:102CE0002025700A0D0054687265642E5374617457
:102CF0006963206C6F63616C20746F206D61696E15
:102D000028292069732061742025700A0D005468F9
:102D10007265642E436F6E7374206C6F63616C20F8
:102D2000746F206D61696E28292069732061742099
:102D300025700A0D00507265722E537461746963B8
:102D400020636F6E7374206C6F63616C20746F20EE
:102D50006D61696E28292069732061742025700ACD
:102D60000D00507265722E537461746963206C6F2C
:102D700063616C20746F206D61696E28292069730E
:102D80002061742025700A0D00507265722E436F09
:102D90006E7374206C6F63616C20746F206D616959
:102DA0006E28292069732061742025700A0D007433
:102DB00068726561645F6F6E65000000000000006E
:102DC00000000000000000002802002000000000B9
:102DD00000000000000000000000000000000000F3
:102DE00000000000000000000000000000000000E3
:102DF00000000000000000000000000000000000D3
:102E000000000000000000000000000000000000C2
:102E100000000000000000000000000000000000B2
:102E2000000000000000000000000000232D302BF7
:102E30002000686C4C0065666745464700303132BB
:102E40003334353637383941424344454600303112
:102E50003233343536373839616263646566000071
:102E60002416002064030020400000000000000041
:102E70000000000000000000282C00082D2C000895
:102E8000010101012802002000000000EC2D0008D3
:102E90000C2E0008CC2D00080000000000000000EF
:102EA0000000000000000000000000000000000022
:102EB0000000000000000000000000000000000012
:102EC0000000000000000000000000000000000002
:102ED00000000000000000000000000000000000F2
:0C2EE0000000000000000000282100009D
:040000050800045992
:00000001FF
